{
  "contractName": "Lottery",
  "abi": [
    {
      "inputs": [],
      "stateMutability": "nonpayable",
      "type": "constructor"
    },
    {
      "anonymous": false,
      "inputs": [
        {
          "indexed": true,
          "internalType": "address",
          "name": "previousOwner",
          "type": "address"
        },
        {
          "indexed": true,
          "internalType": "address",
          "name": "newOwner",
          "type": "address"
        }
      ],
      "name": "OwnershipTransferred",
      "type": "event"
    },
    {
      "anonymous": false,
      "inputs": [
        {
          "indexed": true,
          "internalType": "address",
          "name": "winner",
          "type": "address"
        },
        {
          "indexed": true,
          "internalType": "uint256",
          "name": "totalStake",
          "type": "uint256"
        }
      ],
      "name": "WinnerResult",
      "type": "event"
    },
    {
      "inputs": [],
      "name": "ENTRY_INCREMENT",
      "outputs": [
        {
          "internalType": "uint256",
          "name": "",
          "type": "uint256"
        }
      ],
      "stateMutability": "view",
      "type": "function"
    },
    {
      "inputs": [],
      "name": "LOTTERY_RUN_TIME",
      "outputs": [
        {
          "internalType": "uint256",
          "name": "",
          "type": "uint256"
        }
      ],
      "stateMutability": "view",
      "type": "function"
    },
    {
      "inputs": [],
      "name": "MAXIMIUM_POOL_SIZE",
      "outputs": [
        {
          "internalType": "uint256",
          "name": "",
          "type": "uint256"
        }
      ],
      "stateMutability": "view",
      "type": "function"
    },
    {
      "inputs": [],
      "name": "MAXIMUM_ENTRIES",
      "outputs": [
        {
          "internalType": "uint256",
          "name": "",
          "type": "uint256"
        }
      ],
      "stateMutability": "view",
      "type": "function"
    },
    {
      "inputs": [],
      "name": "lotteryState",
      "outputs": [
        {
          "internalType": "enum Lottery.LOTTERY_STATE",
          "name": "",
          "type": "uint8"
        }
      ],
      "stateMutability": "view",
      "type": "function"
    },
    {
      "inputs": [],
      "name": "owner",
      "outputs": [
        {
          "internalType": "address",
          "name": "",
          "type": "address"
        }
      ],
      "stateMutability": "view",
      "type": "function"
    },
    {
      "inputs": [],
      "name": "renounceOwnership",
      "outputs": [],
      "stateMutability": "nonpayable",
      "type": "function"
    },
    {
      "inputs": [
        {
          "internalType": "address",
          "name": "newOwner",
          "type": "address"
        }
      ],
      "name": "transferOwnership",
      "outputs": [],
      "stateMutability": "nonpayable",
      "type": "function"
    },
    {
      "inputs": [
        {
          "internalType": "uint256",
          "name": "maxPoolSize",
          "type": "uint256"
        },
        {
          "internalType": "uint256",
          "name": "maxEntries",
          "type": "uint256"
        }
      ],
      "name": "updateEntryConstants",
      "outputs": [],
      "stateMutability": "nonpayable",
      "type": "function"
    },
    {
      "inputs": [
        {
          "internalType": "uint256",
          "name": "increment",
          "type": "uint256"
        }
      ],
      "name": "updateEntryIncrement",
      "outputs": [],
      "stateMutability": "nonpayable",
      "type": "function"
    },
    {
      "inputs": [
        {
          "internalType": "uint256",
          "name": "amount_",
          "type": "uint256"
        }
      ],
      "name": "enter",
      "outputs": [],
      "stateMutability": "nonpayable",
      "type": "function"
    },
    {
      "inputs": [],
      "name": "pickWinner",
      "outputs": [],
      "stateMutability": "nonpayable",
      "type": "function"
    },
    {
      "inputs": [],
      "name": "rewardWinner",
      "outputs": [],
      "stateMutability": "nonpayable",
      "type": "function"
    },
    {
      "inputs": [],
      "name": "getNumPlayers",
      "outputs": [
        {
          "internalType": "uint256",
          "name": "",
          "type": "uint256"
        }
      ],
      "stateMutability": "view",
      "type": "function"
    },
    {
      "inputs": [],
      "name": "getPlayers",
      "outputs": [
        {
          "internalType": "address[]",
          "name": "",
          "type": "address[]"
        }
      ],
      "stateMutability": "view",
      "type": "function"
    },
    {
      "inputs": [],
      "name": "getWinners",
      "outputs": [
        {
          "components": [
            {
              "internalType": "address",
              "name": "playerAddress",
              "type": "address"
            },
            {
              "internalType": "uint256",
              "name": "tokenCount",
              "type": "uint256"
            }
          ],
          "internalType": "struct Lottery.Winner[]",
          "name": "",
          "type": "tuple[]"
        }
      ],
      "stateMutability": "view",
      "type": "function"
    },
    {
      "inputs": [],
      "name": "getPool",
      "outputs": [
        {
          "internalType": "uint256",
          "name": "",
          "type": "uint256"
        }
      ],
      "stateMutability": "view",
      "type": "function"
    },
    {
      "inputs": [],
      "name": "getOpenTimestamp",
      "outputs": [
        {
          "internalType": "uint256",
          "name": "",
          "type": "uint256"
        }
      ],
      "stateMutability": "view",
      "type": "function"
    }
  ],
  "bytecode": "0x608060405268056bc75e2d6310000060015569d3c21bcecceda1000000600255611388600355610258600b55678ac7230489e80000600e553480156200004457600080fd5b506000620000606200025c640100000000026401000000009004565b9050806000806101000a81548173ffffffffffffffffffffffffffffffffffffffff021916908373ffffffffffffffffffffffffffffffffffffffff1602179055508073ffffffffffffffffffffffffffffffffffffffff16600073ffffffffffffffffffffffffffffffffffffffff167f8be0079c531659141344cd1fd0a4f28419497f9722a3daafe3b4186f6b6457e060405160405180910390a35073bcca17a1e79cb6fcf2a5b7433e6fbcb7408ca535600560006101000a81548173ffffffffffffffffffffffffffffffffffffffff021916908373ffffffffffffffffffffffffffffffffffffffff16021790555061dead600460016101000a81548173ffffffffffffffffffffffffffffffffffffffff021916908373ffffffffffffffffffffffffffffffffffffffff160217905550733886f3f047ec3914e12b5732222603f7e962f5eb600c60006101000a81548173ffffffffffffffffffffffffffffffffffffffff021916908373ffffffffffffffffffffffffffffffffffffffff1602179055506200020462000264640100000000026401000000009004565b6000600460006101000a81548160ff0219169083600381111562000251577f4e487b7100000000000000000000000000000000000000000000000000000000600052602160045260246000fd5b0217905550620002a0565b600033905090565b6200027d62000296640100000000026401000000009004565b426009819055506000600a819055506000600d81905550565b6000600781905550565b6124d880620002b06000396000f3fe608060405234801561001057600080fd5b5060043610610133576000357c010000000000000000000000000000000000000000000000000000000090048063715018a6116100bf578063a59f3e0c1161008e578063a59f3e0c14610292578063b308336e146102ae578063df15c37e146102cc578063f2fde38b146102ea578063febdb9b81461030657610133565b8063715018a61461022e5780638b5b9ccc146102385780638da5cb5b146102565780639579f07f1461027457610133565b806355c9e9261161010657806355c9e926146101ae5780635b11c3f0146101cc5780635d495aea146101e85780636939864b146101f25780637003dbcd1461021057610133565b8063026b1d5f1461013857806315a5254a1461015657806345c0ac48146101745780634fb06e1d14610190575b600080fd5b610140610310565b60405161014d9190611eb3565b60405180910390f35b61015e61031a565b60405161016b9190611eb3565b60405180910390f35b61018e60048036038101906101899190611884565b610320565b005b6101986103e9565b6040516101a59190611eb3565b60405180910390f35b6101b66103ef565b6040516101c39190611eb3565b60405180910390f35b6101e660048036038101906101e191906118d6565b6103f9565b005b6101f061049b565b005b6101fa610775565b6040516102079190611d38565b60405180910390f35b610218610788565b6040516102259190611eb3565b60405180910390f35b61023661078e565b005b6102406108c8565b60405161024d9190611cf4565b60405180910390f35b61025e610956565b60405161026b9190611c79565b60405180910390f35b61027c61097f565b6040516102899190611eb3565b60405180910390f35b6102ac60048036038101906102a79190611884565b610989565b005b6102b6610d4e565b6040516102c39190611eb3565b60405180910390f35b6102d4610d54565b6040516102e19190611d16565b60405180910390f35b61030460048036038101906102ff9190611832565b610e13565b005b61030e610fbc565b005b6000600a54905090565b60035481565b6103286115dd565b73ffffffffffffffffffffffffffffffffffffffff16610346610956565b73ffffffffffffffffffffffffffffffffffffffff161461039c576040517f08c379a000000000000000000000000000000000000000000000000000000000815260040161039390611dd3565b60405180910390fd5b600081116103df576040517f08c379a00000000000000000000000000000000000000000000000000000000081526004016103d690611e93565b60405180910390fd5b8060018190555050565b600b5481565b6000600754905090565b6104016115dd565b73ffffffffffffffffffffffffffffffffffffffff1661041f610956565b73ffffffffffffffffffffffffffffffffffffffff1614610475576040517f08c379a000000000000000000000000000000000000000000000000000000000815260040161046c90611dd3565b60405180910390fd5b600082111561048657816002819055505b600081111561049757806003819055505b5050565b600060038111156104d5577f4e487b7100000000000000000000000000000000000000000000000000000000600052602160045260246000fd5b600460009054906101000a900460ff16600381111561051d577f4e487b7100000000000000000000000000000000000000000000000000000000600052602160045260246000fd5b1480156105385750600b546009546105359190611f51565b42115b1561058f576001600460006101000a81548160ff02191690836003811115610589577f4e487b7100000000000000000000000000000000000000000000000000000000600052602160045260246000fd5b02179055505b600160038111156105c9577f4e487b7100000000000000000000000000000000000000000000000000000000600052602160045260246000fd5b600460009054906101000a900460ff166003811115610611577f4e487b7100000000000000000000000000000000000000000000000000000000600052602160045260246000fd5b14610651576040517f08c379a000000000000000000000000000000000000000000000000000000000815260040161064890611e73565b60405180910390fd5b600060075414156106ba576106646115e5565b6000600460006101000a81548160ff021916908360038111156106b0577f4e487b7100000000000000000000000000000000000000000000000000000000600052602160045260246000fd5b0217905550610773565b6106c2611606565b6002600460006101000a81548160ff0219169083600381111561070e577f4e487b7100000000000000000000000000000000000000000000000000000000600052602160045260246000fd5b021790555061071b611608565b600d819055506003600460006101000a81548160ff0219169083600381111561076d577f4e487b7100000000000000000000000000000000000000000000000000000000600052602160045260246000fd5b02179055505b565b600460009054906101000a900460ff1681565b60015481565b6107966115dd565b73ffffffffffffffffffffffffffffffffffffffff166107b4610956565b73ffffffffffffffffffffffffffffffffffffffff161461080a576040517f08c379a000000000000000000000000000000000000000000000000000000000815260040161080190611dd3565b60405180910390fd5b600073ffffffffffffffffffffffffffffffffffffffff1660008054906101000a900473ffffffffffffffffffffffffffffffffffffffff1673ffffffffffffffffffffffffffffffffffffffff167f8be0079c531659141344cd1fd0a4f28419497f9722a3daafe3b4186f6b6457e060405160405180910390a360008060006101000a81548173ffffffffffffffffffffffffffffffffffffffff021916908373ffffffffffffffffffffffffffffffffffffffff160217905550565b6060600680548060200260200160405190810160405280929190818152602001828054801561094c57602002820191906000526020600020905b8160009054906101000a900473ffffffffffffffffffffffffffffffffffffffff1673ffffffffffffffffffffffffffffffffffffffff1681526020019060010190808311610902575b5050505050905090565b60008060009054906101000a900473ffffffffffffffffffffffffffffffffffffffff16905090565b6000600954905090565b600060038111156109c3577f4e487b7100000000000000000000000000000000000000000000000000000000600052602160045260246000fd5b600460009054906101000a900460ff166003811115610a0b577f4e487b7100000000000000000000000000000000000000000000000000000000600052602160045260246000fd5b14610a4b576040517f08c379a0000000000000000000000000000000000000000000000000000000008152600401610a4290611e53565b60405180910390fd5b600254600a5410610a91576040517f08c379a0000000000000000000000000000000000000000000000000000000008152600401610a8890611db3565b60405180910390fd5b6003546006805490501115610adb576040517f08c379a0000000000000000000000000000000000000000000000000000000008152600401610ad290611e33565b60405180910390fd5b600154811015610b20576040517f08c379a0000000000000000000000000000000000000000000000000000000008152600401610b1790611e13565b60405180910390fd5b6000610b376001548361163c90919063ffffffff16565b14610b77576040517f08c379a0000000000000000000000000000000000000000000000000000000008152600401610b6e90611df3565b60405180910390fd5b600560009054906101000a900473ffffffffffffffffffffffffffffffffffffffff1673ffffffffffffffffffffffffffffffffffffffff166323b872dd3330846040518463ffffffff167c0100000000000000000000000000000000000000000000000000000000028152600401610bf293929190611c94565b602060405180830381600087803b158015610c0c57600080fd5b505af1158015610c20573d6000803e3d6000fd5b505050506040513d601f19601f82011682018060405250810190610c44919061185b565b610c83576040517f08c379a0000000000000000000000000000000000000000000000000000000008152600401610c7a90611d53565b60405180910390fd5b60005b610c9b6001548361165290919063ffffffff16565b811015610cbe57610cab33611668565b8080610cb690612045565b915050610c86565b50610cd481600a546117be90919063ffffffff16565b600a81905550600b54600954610cea9190611f51565b421115610d4b576001600460006101000a81548160ff02191690836003811115610d3d577f4e487b7100000000000000000000000000000000000000000000000000000000600052602160045260246000fd5b0217905550610d4a61049b565b5b50565b60025481565b60606008805480602002602001604051908101604052809291908181526020016000905b82821015610e0a57838290600052602060002090600202016040518060400160405290816000820160009054906101000a900473ffffffffffffffffffffffffffffffffffffffff1673ffffffffffffffffffffffffffffffffffffffff1673ffffffffffffffffffffffffffffffffffffffff16815260200160018201548152505081526020019060010190610d78565b50505050905090565b610e1b6115dd565b73ffffffffffffffffffffffffffffffffffffffff16610e39610956565b73ffffffffffffffffffffffffffffffffffffffff1614610e8f576040517f08c379a0000000000000000000000000000000000000000000000000000000008152600401610e8690611dd3565b60405180910390fd5b600073ffffffffffffffffffffffffffffffffffffffff168173ffffffffffffffffffffffffffffffffffffffff161415610eff576040517f08c379a0000000000000000000000000000000000000000000000000000000008152600401610ef690611d73565b60405180910390fd5b8073ffffffffffffffffffffffffffffffffffffffff1660008054906101000a900473ffffffffffffffffffffffffffffffffffffffff1673ffffffffffffffffffffffffffffffffffffffff167f8be0079c531659141344cd1fd0a4f28419497f9722a3daafe3b4186f6b6457e060405160405180910390a3806000806101000a81548173ffffffffffffffffffffffffffffffffffffffff021916908373ffffffffffffffffffffffffffffffffffffffff16021790555050565b600380811115610ff5577f4e487b7100000000000000000000000000000000000000000000000000000000600052602160045260246000fd5b600460009054906101000a900460ff16600381111561103d577f4e487b7100000000000000000000000000000000000000000000000000000000600052602160045260246000fd5b1461107d576040517f08c379a000000000000000000000000000000000000000000000000000000000815260040161107490611d93565b60405180910390fd5b6000600754600d54424360405160200161109993929190611c3c565b60405160208183030381529060405280519060200120600190046110bd9190612098565b90506000600682815481106110fb577f4e487b7100000000000000000000000000000000000000000000000000000000600052603260045260246000fd5b9060005260206000200160009054906101000a900473ffffffffffffffffffffffffffffffffffffffff1690506000600560009054906101000a900473ffffffffffffffffffffffffffffffffffffffff1673ffffffffffffffffffffffffffffffffffffffff166370a08231306040518263ffffffff167c01000000000000000000000000000000000000000000000000000000000281526004016111a19190611c79565b60206040518083038186803b1580156111b957600080fd5b505afa1580156111cd573d6000803e3d6000fd5b505050506040513d601f19601f820116820180604052508101906111f191906118ad565b9050600560009054906101000a900473ffffffffffffffffffffffffffffffffffffffff1673ffffffffffffffffffffffffffffffffffffffff1663a9059cbb600460019054906101000a900473ffffffffffffffffffffffffffffffffffffffff166014846112619190611fa7565b6040518363ffffffff167c010000000000000000000000000000000000000000000000000000000002815260040161129a929190611ccb565b602060405180830381600087803b1580156112b457600080fd5b505af11580156112c8573d6000803e3d6000fd5b505050506040513d601f19601f820116820180604052508101906112ec919061185b565b6112f557600080fd5b600560009054906101000a900473ffffffffffffffffffffffffffffffffffffffff1673ffffffffffffffffffffffffffffffffffffffff166370a08231306040518263ffffffff167c010000000000000000000000000000000000000000000000000000000002815260040161136c9190611c79565b60206040518083038186803b15801561138457600080fd5b505afa158015611398573d6000803e3d6000fd5b505050506040513d601f19601f820116820180604052508101906113bc91906118ad565b9050600560009054906101000a900473ffffffffffffffffffffffffffffffffffffffff1673ffffffffffffffffffffffffffffffffffffffff1663a9059cbb83836040518363ffffffff167c0100000000000000000000000000000000000000000000000000000000028152600401611437929190611ccb565b602060405180830381600087803b15801561145157600080fd5b505af1158015611465573d6000803e3d6000fd5b505050506040513d601f19601f82011682018060405250810190611489919061185b565b61149257600080fd5b600860405180604001604052808473ffffffffffffffffffffffffffffffffffffffff16815260200183815250908060018154018082558091505060019003906000526020600020906002020160009091909190915060008201518160000160006101000a81548173ffffffffffffffffffffffffffffffffffffffff021916908373ffffffffffffffffffffffffffffffffffffffff160217905550602082015181600101555050808273ffffffffffffffffffffffffffffffffffffffff167f944df142ef461593b829187ae4ddee80c1c70edfa4d6b0d6cdefd18341a8c4f260405160405180910390a36115876115e5565b6000600460006101000a81548160ff021916908360038111156115d3577f4e487b7100000000000000000000000000000000000000000000000000000000600052602160045260246000fd5b0217905550505050565b600033905090565b6115ed6117d4565b426009819055506000600a819055506000600d81905550565b565b6000444260405160200161161d929190611c10565b6040516020818303038152906040528051906020012060019004905090565b6000818361164a9190612098565b905092915050565b600081836116609190611fa7565b905092915050565b60068054905060075411156116a6577f4e487b7100000000000000000000000000000000000000000000000000000000600052600160045260246000fd5b600680549050600754141561171d576006819080600181540180825580915050600190039060005260206000200160009091909190916101000a81548173ffffffffffffffffffffffffffffffffffffffff021916908373ffffffffffffffffffffffffffffffffffffffff1602179055506117a3565b8060066007548154811061175a577f4e487b7100000000000000000000000000000000000000000000000000000000600052603260045260246000fd5b9060005260206000200160006101000a81548173ffffffffffffffffffffffffffffffffffffffff021916908373ffffffffffffffffffffffffffffffffffffffff1602179055505b600760008154809291906117b690612045565b919050555050565b600081836117cc9190611f51565b905092915050565b6000600781905550565b6000813590506117ed8161245d565b92915050565b60008151905061180281612474565b92915050565b6000813590506118178161248b565b92915050565b60008151905061182c8161248b565b92915050565b60006020828403121561184457600080fd5b6000611852848285016117de565b91505092915050565b60006020828403121561186d57600080fd5b600061187b848285016117f3565b91505092915050565b60006020828403121561189657600080fd5b60006118a484828501611808565b91505092915050565b6000602082840312156118bf57600080fd5b60006118cd8482850161181d565b91505092915050565b600080604083850312156118e957600080fd5b60006118f785828601611808565b925050602061190885828601611808565b9150509250929050565b600061191e8383611942565b60208301905092915050565b60006119368383611bac565b60408301905092915050565b61194b81611fd8565b82525050565b61195a81611fd8565b82525050565b600061196b82611eee565b6119758185611f1e565b935061198083611ece565b8060005b838110156119b15781516119988882611912565b97506119a383611f04565b925050600181019050611984565b5085935050505092915050565b60006119c982611ef9565b6119d38185611f2f565b93506119de83611ede565b8060005b83811015611a0f5781516119f6888261192a565b9750611a0183611f11565b9250506001810190506119e2565b5085935050505092915050565b611a2581612033565b82525050565b6000611a38602c83611f40565b9150611a4382612156565b604082019050919050565b6000611a5b602683611f40565b9150611a66826121a5565b604082019050919050565b6000611a7e602483611f40565b9150611a89826121f4565b604082019050919050565b6000611aa1602683611f40565b9150611aac82612243565b604082019050919050565b6000611ac4602083611f40565b9150611acf82612292565b602082019050919050565b6000611ae7602f83611f40565b9150611af2826122bb565b604082019050919050565b6000611b0a601f83611f40565b9150611b158261230a565b602082019050919050565b6000611b2d602e83611f40565b9150611b3882612333565b604082019050919050565b6000611b50601883611f40565b9150611b5b82612382565b602082019050919050565b6000611b73602283611f40565b9150611b7e826123ab565b604082019050919050565b6000611b96602183611f40565b9150611ba1826123fa565b604082019050919050565b604082016000820151611bc26000850182611942565b506020820151611bd56020850182611bdb565b50505050565b611be481612029565b82525050565b611bf381612029565b82525050565b611c0a611c0582612029565b61208e565b82525050565b6000611c1c8285611bf9565b602082019150611c2c8284611bf9565b6020820191508190509392505050565b6000611c488286611bf9565b602082019150611c588285611bf9565b602082019150611c688284611bf9565b602082019150819050949350505050565b6000602082019050611c8e6000830184611951565b92915050565b6000606082019050611ca96000830186611951565b611cb66020830185611951565b611cc36040830184611bea565b949350505050565b6000604082019050611ce06000830185611951565b611ced6020830184611bea565b9392505050565b60006020820190508181036000830152611d0e8184611960565b905092915050565b60006020820190508181036000830152611d3081846119be565b905092915050565b6000602082019050611d4d6000830184611a1c565b92915050565b60006020820190508181036000830152611d6c81611a2b565b9050919050565b60006020820190508181036000830152611d8c81611a4e565b9050919050565b60006020820190508181036000830152611dac81611a71565b9050919050565b60006020820190508181036000830152611dcc81611a94565b9050919050565b60006020820190508181036000830152611dec81611ab7565b9050919050565b60006020820190508181036000830152611e0c81611ada565b9050919050565b60006020820190508181036000830152611e2c81611afd565b9050919050565b60006020820190508181036000830152611e4c81611b20565b9050919050565b60006020820190508181036000830152611e6c81611b43565b9050919050565b60006020820190508181036000830152611e8c81611b66565b9050919050565b60006020820190508181036000830152611eac81611b89565b9050919050565b6000602082019050611ec86000830184611bea565b92915050565b6000819050602082019050919050565b6000819050602082019050919050565b600081519050919050565b600081519050919050565b6000602082019050919050565b6000602082019050919050565b600082825260208201905092915050565b600082825260208201905092915050565b600082825260208201905092915050565b6000611f5c82612029565b9150611f6783612029565b9250827fffffffffffffffffffffffffffffffffffffffffffffffffffffffffffffffff03821115611f9c57611f9b6120c9565b5b828201905092915050565b6000611fb282612029565b9150611fbd83612029565b925082611fcd57611fcc6120f8565b5b828204905092915050565b6000611fe382612009565b9050919050565b60008115159050919050565b600081905061200482612449565b919050565b600073ffffffffffffffffffffffffffffffffffffffff82169050919050565b6000819050919050565b600061203e82611ff6565b9050919050565b600061205082612029565b91507fffffffffffffffffffffffffffffffffffffffffffffffffffffffffffffffff821415612083576120826120c9565b5b600182019050919050565b6000819050919050565b60006120a382612029565b91506120ae83612029565b9250826120be576120bd6120f8565b5b828206905092915050565b7f4e487b7100000000000000000000000000000000000000000000000000000000600052601160045260246000fd5b7f4e487b7100000000000000000000000000000000000000000000000000000000600052601260045260246000fd5b7f4e487b7100000000000000000000000000000000000000000000000000000000600052602160045260246000fd5b7f4661696c656420746f207472616e7366657220746f6b656e732066726f6d207960008201527f6f757220616464726573732e0000000000000000000000000000000000000000602082015250565b7f4f776e61626c653a206e6577206f776e657220697320746865207a65726f206160008201527f6464726573730000000000000000000000000000000000000000000000000000602082015250565b7f546865206c6f7474657279206973206e6f7420726577617264696e672077696e60008201527f6e65722e00000000000000000000000000000000000000000000000000000000602082015250565b7f546865206c6f7474657279206861732072656163686564206d617820706f6f6c60008201527f2073697a652e0000000000000000000000000000000000000000000000000000602082015250565b7f4f776e61626c653a2063616c6c6572206973206e6f7420746865206f776e6572600082015250565b7f456e747279206d75737420626520696e20696e6372656d656e7473206f66204560008201527f4e5452595f494e4352454d454e542e0000000000000000000000000000000000602082015250565b7f456e74727920616d6f756e74206c657373207468616e206d696e696d756d2e00600082015250565b7f546865206c6f7474657279206861732072656163686564206d6178206e756d6260008201527f6572206f6620656e74726965732e000000000000000000000000000000000000602082015250565b7f546865206c6f7474657279206973206e6f74206f70656e2e0000000000000000600082015250565b7f546865206c6f7474657279206973206e6f74207069636b696e672077696e6e6560008201527f722e000000000000000000000000000000000000000000000000000000000000602082015250565b7f696e6372656d656e74206d7573742062652067726561746572207468616e203060008201527f2e00000000000000000000000000000000000000000000000000000000000000602082015250565b6004811061245a57612459612127565b5b50565b61246681611fd8565b811461247157600080fd5b50565b61247d81611fea565b811461248857600080fd5b50565b61249481612029565b811461249f57600080fd5b5056fea26469706673582212208b2c2b7cf6afd67aa9777a4d07b088bcf9321ea97339fca4ce625072a790e9f664736f6c63430008030033",
  "immutableReferences": {},
  "source": "/**\r\n *Submitted for verification at BscScan.com on 2021-04-05\r\n*/\r\n\r\n// SPDX-License-Identifier: MIT\r\n\r\npragma solidity ^0.8.0;\r\n\r\n/*\r\n * @dev Provides information about the current execution context, including the\r\n * sender of the transaction and its data. While these are generally available\r\n * via msg.sender and msg.data, they should not be accessed in such a direct\r\n * manner, since when dealing with meta-transactions the account sending and\r\n * paying for execution may not be the actual sender (as far as an application\r\n * is concerned).\r\n *\r\n * This contract is only required for intermediate, library-like contracts.\r\n */\r\nabstract contract Context {\r\n    function _msgSender() internal view virtual returns (address) {\r\n        return msg.sender;\r\n    }\r\n\r\n    function _msgData() internal view virtual returns (bytes calldata) {\r\n        this; // silence state mutability warning without generating bytecode - see https://github.com/ethereum/solidity/issues/2691\r\n        return msg.data;\r\n    }\r\n}\r\n\r\n/**\r\n * @dev Contract module which provides a basic access control mechanism, where\r\n * there is an account (an owner) that can be granted exclusive access to\r\n * specific functions.\r\n *\r\n * By default, the owner account will be the one that deploys the contract. This\r\n * can later be changed with {transferOwnership}.\r\n *\r\n * This module is used through inheritance. It will make available the modifier\r\n * `onlyOwner`, which can be applied to your functions to restrict their use to\r\n * the owner.\r\n */\r\nabstract contract Ownable is Context {\r\n    address private _owner;\r\n\r\n    event OwnershipTransferred(address indexed previousOwner, address indexed newOwner);\r\n\r\n    /**\r\n     * @dev Initializes the contract setting the deployer as the initial owner.\r\n     */\r\n    constructor () {\r\n        address msgSender = _msgSender();\r\n        _owner = msgSender;\r\n        emit OwnershipTransferred(address(0), msgSender);\r\n    }\r\n\r\n    /**\r\n     * @dev Returns the address of the current owner.\r\n     */\r\n    function owner() public view virtual returns (address) {\r\n        return _owner;\r\n    }\r\n\r\n    /**\r\n     * @dev Throws if called by any account other than the owner.\r\n     */\r\n    modifier onlyOwner() {\r\n        require(owner() == _msgSender(), \"Ownable: caller is not the owner\");\r\n        _;\r\n    }\r\n\r\n    /**\r\n     * @dev Leaves the contract without owner. It will not be possible to call\r\n     * `onlyOwner` functions anymore. Can only be called by the current owner.\r\n     *\r\n     * NOTE: Renouncing ownership will leave the contract without an owner,\r\n     * thereby removing any functionality that is only available to the owner.\r\n     */\r\n    function renounceOwnership() public virtual onlyOwner {\r\n        emit OwnershipTransferred(_owner, address(0));\r\n        _owner = address(0);\r\n    }\r\n\r\n    /**\r\n     * @dev Transfers ownership of the contract to a new account (`newOwner`).\r\n     * Can only be called by the current owner.\r\n     */\r\n    function transferOwnership(address newOwner) public virtual onlyOwner {\r\n        require(newOwner != address(0), \"Ownable: new owner is the zero address\");\r\n        emit OwnershipTransferred(_owner, newOwner);\r\n        _owner = newOwner;\r\n    }\r\n}\r\n\r\n// CAUTION\r\n// This version of SafeMath should only be used with Solidity 0.8 or later,\r\n// because it relies on the compiler's built in overflow checks.\r\n\r\n/**\r\n * @dev Wrappers over Solidity's arithmetic operations.\r\n *\r\n * NOTE: `SafeMath` is no longer needed starting with Solidity 0.8. The compiler\r\n * now has built in overflow checking.\r\n */\r\nlibrary SafeMath {\r\n    /**\r\n     * @dev Returns the addition of two unsigned integers, with an overflow flag.\r\n     *\r\n     * _Available since v3.4._\r\n     */\r\n    function tryAdd(uint256 a, uint256 b) internal pure returns (bool, uint256) {\r\n        unchecked {\r\n            uint256 c = a + b;\r\n            if (c < a) return (false, 0);\r\n            return (true, c);\r\n        }\r\n    }\r\n\r\n    /**\r\n     * @dev Returns the substraction of two unsigned integers, with an overflow flag.\r\n     *\r\n     * _Available since v3.4._\r\n     */\r\n    function trySub(uint256 a, uint256 b) internal pure returns (bool, uint256) {\r\n        unchecked {\r\n            if (b > a) return (false, 0);\r\n            return (true, a - b);\r\n        }\r\n    }\r\n\r\n    /**\r\n     * @dev Returns the multiplication of two unsigned integers, with an overflow flag.\r\n     *\r\n     * _Available since v3.4._\r\n     */\r\n    function tryMul(uint256 a, uint256 b) internal pure returns (bool, uint256) {\r\n        unchecked {\r\n            // Gas optimization: this is cheaper than requiring 'a' not being zero, but the\r\n            // benefit is lost if 'b' is also tested.\r\n            // See: https://github.com/OpenZeppelin/openzeppelin-contracts/pull/522\r\n            if (a == 0) return (true, 0);\r\n            uint256 c = a * b;\r\n            if (c / a != b) return (false, 0);\r\n            return (true, c);\r\n        }\r\n    }\r\n\r\n    /**\r\n     * @dev Returns the division of two unsigned integers, with a division by zero flag.\r\n     *\r\n     * _Available since v3.4._\r\n     */\r\n    function tryDiv(uint256 a, uint256 b) internal pure returns (bool, uint256) {\r\n        unchecked {\r\n            if (b == 0) return (false, 0);\r\n            return (true, a / b);\r\n        }\r\n    }\r\n\r\n    /**\r\n     * @dev Returns the remainder of dividing two unsigned integers, with a division by zero flag.\r\n     *\r\n     * _Available since v3.4._\r\n     */\r\n    function tryMod(uint256 a, uint256 b) internal pure returns (bool, uint256) {\r\n        unchecked {\r\n            if (b == 0) return (false, 0);\r\n            return (true, a % b);\r\n        }\r\n    }\r\n\r\n    /**\r\n     * @dev Returns the addition of two unsigned integers, reverting on\r\n     * overflow.\r\n     *\r\n     * Counterpart to Solidity's `+` operator.\r\n     *\r\n     * Requirements:\r\n     *\r\n     * - Addition cannot overflow.\r\n     */\r\n    function add(uint256 a, uint256 b) internal pure returns (uint256) {\r\n        return a + b;\r\n    }\r\n\r\n    /**\r\n     * @dev Returns the subtraction of two unsigned integers, reverting on\r\n     * overflow (when the result is negative).\r\n     *\r\n     * Counterpart to Solidity's `-` operator.\r\n     *\r\n     * Requirements:\r\n     *\r\n     * - Subtraction cannot overflow.\r\n     */\r\n    function sub(uint256 a, uint256 b) internal pure returns (uint256) {\r\n        return a - b;\r\n    }\r\n\r\n    /**\r\n     * @dev Returns the multiplication of two unsigned integers, reverting on\r\n     * overflow.\r\n     *\r\n     * Counterpart to Solidity's `*` operator.\r\n     *\r\n     * Requirements:\r\n     *\r\n     * - Multiplication cannot overflow.\r\n     */\r\n    function mul(uint256 a, uint256 b) internal pure returns (uint256) {\r\n        return a * b;\r\n    }\r\n\r\n    /**\r\n     * @dev Returns the integer division of two unsigned integers, reverting on\r\n     * division by zero. The result is rounded towards zero.\r\n     *\r\n     * Counterpart to Solidity's `/` operator.\r\n     *\r\n     * Requirements:\r\n     *\r\n     * - The divisor cannot be zero.\r\n     */\r\n    function div(uint256 a, uint256 b) internal pure returns (uint256) {\r\n        return a / b;\r\n    }\r\n\r\n    /**\r\n     * @dev Returns the remainder of dividing two unsigned integers. (unsigned integer modulo),\r\n     * reverting when dividing by zero.\r\n     *\r\n     * Counterpart to Solidity's `%` operator. This function uses a `revert`\r\n     * opcode (which leaves remaining gas untouched) while Solidity uses an\r\n     * invalid opcode to revert (consuming all remaining gas).\r\n     *\r\n     * Requirements:\r\n     *\r\n     * - The divisor cannot be zero.\r\n     */\r\n    function mod(uint256 a, uint256 b) internal pure returns (uint256) {\r\n        return a % b;\r\n    }\r\n\r\n    /**\r\n     * @dev Returns the subtraction of two unsigned integers, reverting with custom message on\r\n     * overflow (when the result is negative).\r\n     *\r\n     * CAUTION: This function is deprecated because it requires allocating memory for the error\r\n     * message unnecessarily. For custom revert reasons use {trySub}.\r\n     *\r\n     * Counterpart to Solidity's `-` operator.\r\n     *\r\n     * Requirements:\r\n     *\r\n     * - Subtraction cannot overflow.\r\n     */\r\n    function sub(uint256 a, uint256 b, string memory errorMessage) internal pure returns (uint256) {\r\n        unchecked {\r\n            require(b <= a, errorMessage);\r\n            return a - b;\r\n        }\r\n    }\r\n\r\n    /**\r\n     * @dev Returns the integer division of two unsigned integers, reverting with custom message on\r\n     * division by zero. The result is rounded towards zero.\r\n     *\r\n     * Counterpart to Solidity's `%` operator. This function uses a `revert`\r\n     * opcode (which leaves remaining gas untouched) while Solidity uses an\r\n     * invalid opcode to revert (consuming all remaining gas).\r\n     *\r\n     * Counterpart to Solidity's `/` operator. Note: this function uses a\r\n     * `revert` opcode (which leaves remaining gas untouched) while Solidity\r\n     * uses an invalid opcode to revert (consuming all remaining gas).\r\n     *\r\n     * Requirements:\r\n     *\r\n     * - The divisor cannot be zero.\r\n     */\r\n    function div(uint256 a, uint256 b, string memory errorMessage) internal pure returns (uint256) {\r\n        unchecked {\r\n            require(b > 0, errorMessage);\r\n            return a / b;\r\n        }\r\n    }\r\n\r\n    /**\r\n     * @dev Returns the remainder of dividing two unsigned integers. (unsigned integer modulo),\r\n     * reverting with custom message when dividing by zero.\r\n     *\r\n     * CAUTION: This function is deprecated because it requires allocating memory for the error\r\n     * message unnecessarily. For custom revert reasons use {tryMod}.\r\n     *\r\n     * Counterpart to Solidity's `%` operator. This function uses a `revert`\r\n     * opcode (which leaves remaining gas untouched) while Solidity uses an\r\n     * invalid opcode to revert (consuming all remaining gas).\r\n     *\r\n     * Requirements:\r\n     *\r\n     * - The divisor cannot be zero.\r\n     */\r\n    function mod(uint256 a, uint256 b, string memory errorMessage) internal pure returns (uint256) {\r\n        unchecked {\r\n            require(b > 0, errorMessage);\r\n            return a % b;\r\n        }\r\n    }\r\n}\r\n\r\n/**\r\n * @dev Interface of the ERC20 standard as defined in the EIP.\r\n */\r\ninterface IERC20 {\r\n    /**\r\n     * @dev Returns the amount of tokens in existence.\r\n     */\r\n    function totalSupply() external view returns (uint256);\r\n\r\n    /**\r\n     * @dev Returns the amount of tokens owned by `account`.\r\n     */\r\n    function balanceOf(address account) external view returns (uint256);\r\n\r\n    /**\r\n     * @dev Moves `amount` tokens from the caller's account to `recipient`.\r\n     *\r\n     * Returns a boolean value indicating whether the operation succeeded.\r\n     *\r\n     * Emits a {Transfer} event.\r\n     */\r\n    function transfer(address recipient, uint256 amount) external returns (bool);\r\n\r\n    /**\r\n     * @dev Returns the remaining number of tokens that `spender` will be\r\n     * allowed to spend on behalf of `owner` through {transferFrom}. This is\r\n     * zero by default.\r\n     *\r\n     * This value changes when {approve} or {transferFrom} are called.\r\n     */\r\n    function allowance(address owner, address spender) external view returns (uint256);\r\n\r\n    /**\r\n     * @dev Sets `amount` as the allowance of `spender` over the caller's tokens.\r\n     *\r\n     * Returns a boolean value indicating whether the operation succeeded.\r\n     *\r\n     * IMPORTANT: Beware that changing an allowance with this method brings the risk\r\n     * that someone may use both the old and the new allowance by unfortunate\r\n     * transaction ordering. One possible solution to mitigate this race\r\n     * condition is to first reduce the spender's allowance to 0 and set the\r\n     * desired value afterwards:\r\n     * https://github.com/ethereum/EIPs/issues/20#issuecomment-263524729\r\n     *\r\n     * Emits an {Approval} event.\r\n     */\r\n    function approve(address spender, uint256 amount) external returns (bool);\r\n\r\n    /**\r\n     * @dev Moves `amount` tokens from `sender` to `recipient` using the\r\n     * allowance mechanism. `amount` is then deducted from the caller's\r\n     * allowance.\r\n     *\r\n     * Returns a boolean value indicating whether the operation succeeded.\r\n     *\r\n     * Emits a {Transfer} event.\r\n     */\r\n    function transferFrom(address sender, address recipient, uint256 amount) external returns (bool);\r\n\r\n    /**\r\n     * @dev Emitted when `value` tokens are moved from one account (`from`) to\r\n     * another (`to`).\r\n     *\r\n     * Note that `value` may be zero.\r\n     */\r\n    event Transfer(address indexed from, address indexed to, uint256 value);\r\n\r\n    /**\r\n     * @dev Emitted when the allowance of a `spender` for an `owner` is set by\r\n     * a call to {approve}. `value` is the new allowance.\r\n     */\r\n    event Approval(address indexed owner, address indexed spender, uint256 value);\r\n}\r\n\r\n/**\r\n * @dev Implementation of the {IERC20} interface.\r\n *\r\n * This implementation is agnostic to the way tokens are created. This means\r\n * that a supply mechanism has to be added in a derived contract using {_mint}.\r\n * For a generic mechanism see {ERC20PresetMinterPauser}.\r\n *\r\n * TIP: For a detailed writeup see our guide\r\n * https://forum.zeppelin.solutions/t/how-to-implement-erc20-supply-mechanisms/226[How\r\n * to implement supply mechanisms].\r\n *\r\n * We have followed general OpenZeppelin guidelines: functions revert instead\r\n * of returning `false` on failure. This behavior is nonetheless conventional\r\n * and does not conflict with the expectations of ERC20 applications.\r\n *\r\n * Additionally, an {Approval} event is emitted on calls to {transferFrom}.\r\n * This allows applications to reconstruct the allowance for all accounts just\r\n * by listening to said events. Other implementations of the EIP may not emit\r\n * these events, as it isn't required by the specification.\r\n *\r\n * Finally, the non-standard {decreaseAllowance} and {increaseAllowance}\r\n * functions have been added to mitigate the well-known issues around setting\r\n * allowances. See {IERC20-approve}.\r\n */\r\ncontract ERC20 is Context, IERC20 {\r\n    mapping (address => uint256) private _balances;\r\n\r\n    mapping (address => mapping (address => uint256)) private _allowances;\r\n\r\n    uint256 private _totalSupply;\r\n\r\n    string private _name;\r\n    string private _symbol;\r\n\r\n    /**\r\n     * @dev Sets the values for {name} and {symbol}.\r\n     *\r\n     * The defaut value of {decimals} is 18. To select a different value for\r\n     * {decimals} you should overload it.\r\n     *\r\n     * All three of these values are immutable: they can only be set once during\r\n     * construction.\r\n     */\r\n    constructor (string memory name_, string memory symbol_) {\r\n        _name = name_;\r\n        _symbol = symbol_;\r\n    }\r\n\r\n    /**\r\n     * @dev Returns the name of the token.\r\n     */\r\n    function name() public view virtual returns (string memory) {\r\n        return _name;\r\n    }\r\n\r\n    /**\r\n     * @dev Returns the symbol of the token, usually a shorter version of the\r\n     * name.\r\n     */\r\n    function symbol() public view virtual returns (string memory) {\r\n        return _symbol;\r\n    }\r\n\r\n    /**\r\n     * @dev Returns the number of decimals used to get its user representation.\r\n     * For example, if `decimals` equals `2`, a balance of `505` tokens should\r\n     * be displayed to a user as `5,05` (`505 / 10 ** 2`).\r\n     *\r\n     * Tokens usually opt for a value of 18, imitating the relationship between\r\n     * Ether and Wei. This is the value {ERC20} uses, unless this function is\r\n     * overloaded;\r\n     *\r\n     * NOTE: This information is only used for _display_ purposes: it in\r\n     * no way affects any of the arithmetic of the contract, including\r\n     * {IERC20-balanceOf} and {IERC20-transfer}.\r\n     */\r\n    function decimals() public view virtual returns (uint8) {\r\n        return 18;\r\n    }\r\n\r\n    /**\r\n     * @dev See {IERC20-totalSupply}.\r\n     */\r\n    function totalSupply() public view virtual override returns (uint256) {\r\n        return _totalSupply;\r\n    }\r\n\r\n    /**\r\n     * @dev See {IERC20-balanceOf}.\r\n     */\r\n    function balanceOf(address account) public view virtual override returns (uint256) {\r\n        return _balances[account];\r\n    }\r\n\r\n    /**\r\n     * @dev See {IERC20-transfer}.\r\n     *\r\n     * Requirements:\r\n     *\r\n     * - `recipient` cannot be the zero address.\r\n     * - the caller must have a balance of at least `amount`.\r\n     */\r\n    function transfer(address recipient, uint256 amount) public virtual override returns (bool) {\r\n        _transfer(_msgSender(), recipient, amount);\r\n        return true;\r\n    }\r\n\r\n    /**\r\n     * @dev See {IERC20-allowance}.\r\n     */\r\n    function allowance(address owner, address spender) public view virtual override returns (uint256) {\r\n        return _allowances[owner][spender];\r\n    }\r\n\r\n    /**\r\n     * @dev See {IERC20-approve}.\r\n     *\r\n     * Requirements:\r\n     *\r\n     * - `spender` cannot be the zero address.\r\n     */\r\n    function approve(address spender, uint256 amount) public virtual override returns (bool) {\r\n        _approve(_msgSender(), spender, amount);\r\n        return true;\r\n    }\r\n\r\n    /**\r\n     * @dev See {IERC20-transferFrom}.\r\n     *\r\n     * Emits an {Approval} event indicating the updated allowance. This is not\r\n     * required by the EIP. See the note at the beginning of {ERC20}.\r\n     *\r\n     * Requirements:\r\n     *\r\n     * - `sender` and `recipient` cannot be the zero address.\r\n     * - `sender` must have a balance of at least `amount`.\r\n     * - the caller must have allowance for ``sender``'s tokens of at least\r\n     * `amount`.\r\n     */\r\n    function transferFrom(address sender, address recipient, uint256 amount) public virtual override returns (bool) {\r\n        _transfer(sender, recipient, amount);\r\n\r\n        uint256 currentAllowance = _allowances[sender][_msgSender()];\r\n        require(currentAllowance >= amount, \"ERC20: transfer amount exceeds allowance\");\r\n        _approve(sender, _msgSender(), currentAllowance - amount);\r\n\r\n        return true;\r\n    }\r\n\r\n    /**\r\n     * @dev Atomically increases the allowance granted to `spender` by the caller.\r\n     *\r\n     * This is an alternative to {approve} that can be used as a mitigation for\r\n     * problems described in {IERC20-approve}.\r\n     *\r\n     * Emits an {Approval} event indicating the updated allowance.\r\n     *\r\n     * Requirements:\r\n     *\r\n     * - `spender` cannot be the zero address.\r\n     */\r\n    function increaseAllowance(address spender, uint256 addedValue) public virtual returns (bool) {\r\n        _approve(_msgSender(), spender, _allowances[_msgSender()][spender] + addedValue);\r\n        return true;\r\n    }\r\n\r\n    /**\r\n     * @dev Atomically decreases the allowance granted to `spender` by the caller.\r\n     *\r\n     * This is an alternative to {approve} that can be used as a mitigation for\r\n     * problems described in {IERC20-approve}.\r\n     *\r\n     * Emits an {Approval} event indicating the updated allowance.\r\n     *\r\n     * Requirements:\r\n     *\r\n     * - `spender` cannot be the zero address.\r\n     * - `spender` must have allowance for the caller of at least\r\n     * `subtractedValue`.\r\n     */\r\n    function decreaseAllowance(address spender, uint256 subtractedValue) public virtual returns (bool) {\r\n        uint256 currentAllowance = _allowances[_msgSender()][spender];\r\n        require(currentAllowance >= subtractedValue, \"ERC20: decreased allowance below zero\");\r\n        _approve(_msgSender(), spender, currentAllowance - subtractedValue);\r\n\r\n        return true;\r\n    }\r\n\r\n    /**\r\n     * @dev Moves tokens `amount` from `sender` to `recipient`.\r\n     *\r\n     * This is internal function is equivalent to {transfer}, and can be used to\r\n     * e.g. implement automatic token fees, slashing mechanisms, etc.\r\n     *\r\n     * Emits a {Transfer} event.\r\n     *\r\n     * Requirements:\r\n     *\r\n     * - `sender` cannot be the zero address.\r\n     * - `recipient` cannot be the zero address.\r\n     * - `sender` must have a balance of at least `amount`.\r\n     */\r\n    function _transfer(address sender, address recipient, uint256 amount) internal virtual {\r\n        require(sender != address(0), \"ERC20: transfer from the zero address\");\r\n        require(recipient != address(0), \"ERC20: transfer to the zero address\");\r\n\r\n        _beforeTokenTransfer(sender, recipient, amount);\r\n\r\n        uint256 senderBalance = _balances[sender];\r\n        require(senderBalance >= amount, \"ERC20: transfer amount exceeds balance\");\r\n        _balances[sender] = senderBalance - amount;\r\n        _balances[recipient] += amount;\r\n\r\n        emit Transfer(sender, recipient, amount);\r\n    }\r\n\r\n    /** @dev Creates `amount` tokens and assigns them to `account`, increasing\r\n     * the total supply.\r\n     *\r\n     * Emits a {Transfer} event with `from` set to the zero address.\r\n     *\r\n     * Requirements:\r\n     *\r\n     * - `to` cannot be the zero address.\r\n     */\r\n    function _mint(address account, uint256 amount) internal virtual {\r\n        require(account != address(0), \"ERC20: mint to the zero address\");\r\n\r\n        _beforeTokenTransfer(address(0), account, amount);\r\n\r\n        _totalSupply += amount;\r\n        _balances[account] += amount;\r\n        emit Transfer(address(0), account, amount);\r\n    }\r\n\r\n    /**\r\n     * @dev Destroys `amount` tokens from `account`, reducing the\r\n     * total supply.\r\n     *\r\n     * Emits a {Transfer} event with `to` set to the zero address.\r\n     *\r\n     * Requirements:\r\n     *\r\n     * - `account` cannot be the zero address.\r\n     * - `account` must have at least `amount` tokens.\r\n     */\r\n    function _burn(address account, uint256 amount) internal virtual {\r\n        require(account != address(0), \"ERC20: burn from the zero address\");\r\n\r\n        _beforeTokenTransfer(account, address(0), amount);\r\n\r\n        uint256 accountBalance = _balances[account];\r\n        require(accountBalance >= amount, \"ERC20: burn amount exceeds balance\");\r\n        _balances[account] = accountBalance - amount;\r\n        _totalSupply -= amount;\r\n\r\n        emit Transfer(account, address(0), amount);\r\n    }\r\n\r\n    /**\r\n     * @dev Sets `amount` as the allowance of `spender` over the `owner` s tokens.\r\n     *\r\n     * This internal function is equivalent to `approve`, and can be used to\r\n     * e.g. set automatic allowances for certain subsystems, etc.\r\n     *\r\n     * Emits an {Approval} event.\r\n     *\r\n     * Requirements:\r\n     *\r\n     * - `owner` cannot be the zero address.\r\n     * - `spender` cannot be the zero address.\r\n     */\r\n    function _approve(address owner, address spender, uint256 amount) internal virtual {\r\n        require(owner != address(0), \"ERC20: approve from the zero address\");\r\n        require(spender != address(0), \"ERC20: approve to the zero address\");\r\n\r\n        _allowances[owner][spender] = amount;\r\n        emit Approval(owner, spender, amount);\r\n    }\r\n\r\n    /**\r\n     * @dev Hook that is called before any transfer of tokens. This includes\r\n     * minting and burning.\r\n     *\r\n     * Calling conditions:\r\n     *\r\n     * - when `from` and `to` are both non-zero, `amount` of ``from``'s tokens\r\n     * will be to transferred to `to`.\r\n     * - when `from` is zero, `amount` tokens will be minted for `to`.\r\n     * - when `to` is zero, `amount` of ``from``'s tokens will be burned.\r\n     * - `from` and `to` are never both zero.\r\n     *\r\n     * To learn more about hooks, head to xref:ROOT:extending-contracts.adoc#using-hooks[Using Hooks].\r\n     */\r\n    function _beforeTokenTransfer(address from, address to, uint256 amount) internal virtual { }\r\n}\r\n\r\n/**\r\n * BlowFish Lottery Contract\r\n */\r\ncontract Lottery is Ownable {\r\n    using SafeMath for uint256;\r\n    \r\n    uint256 public ENTRY_INCREMENT = 100 * 10 ** 18; // entries must be in 100 BLOWF increments\r\n    uint256 public MAXIMIUM_POOL_SIZE = 1000000 * 10 ** 18; // 1 million BLOWF maximum pool size\r\n    uint256 public MAXIMUM_ENTRIES = 5000; // 5000 entrants max to cap gas fees in winner selection, we can raise this later\r\n    \r\n    struct Winner {\r\n        address playerAddress;\r\n        uint256 tokenCount;\r\n    }\r\n    \r\n    event WinnerResult(\r\n        address indexed winner,\r\n        uint256 indexed totalStake\r\n    );\r\n    \r\n    enum LOTTERY_STATE { OPEN, PICKING_WINNER, WAITING_RANDOM, REWARDING_WINNER }\r\n    LOTTERY_STATE public lotteryState;\r\n\r\n    address private burnAddress;\r\n    ERC20 private tokenContract;\r\n    address[] private players;\r\n    uint256 private numPlayers;\r\n    Winner[] private winners;\r\n    uint256 private openTimestamp;\r\n    uint256 private lotteryPoolSize;\r\n    \r\n    // uint public LOTTERY_RUN_TIME = 259200; // 3 days in seconds\r\n    uint256 public LOTTERY_RUN_TIME = 60 * 10; // 10 minutes in seconds\r\n    \r\n    // BogRNG Oracle\r\n    //IBogRandOracle private oracle;\r\n    address private oracleAddress;\r\n    uint256 private random;\r\n    uint256 private MAXIMUM_ORACLE_FEE = 10 * 10 ** 18; // 10 BOG maximum fee per winning pick\r\n    \r\n    constructor() {\r\n        // BlowFish contract address\r\n        // tokenContract = ERC20(address(0xa55bb91de33b4abdf3ac64913d98a55ad84dc3a8));\r\n        tokenContract = ERC20(address(0xbcca17a1e79Cb6Fcf2A5B7433e6fBCb7408Ca535));  // temporary testnet token\r\n        burnAddress = address(0x000000000000000000000000000000000000dEaD);\r\n        \r\n        oracleAddress = address(0x3886F3f047ec3914E12b5732222603f7E962f5Eb);\r\n        // oracle = IBogRandOracle(oracleAddress); \r\n        \r\n        resetPool();\r\n        lotteryState = LOTTERY_STATE.OPEN;\r\n    }\r\n    \r\n    /**\r\n     * Reset lottery pool. The lottery state should be set to OPEN right after.\r\n     */\r\n    function resetPool() private {\r\n        clearPlayers();\r\n        openTimestamp = block.timestamp;\r\n        lotteryPoolSize = 0;\r\n        random = 0;\r\n        \r\n        // Re-approve oracle to spend BOG from this contract so fees can be taken\r\n        // IBogged(0xD7B729ef857Aa773f47D37088A1181bB3fbF0099).approve(address(oracle), MAXIMUM_ORACLE_FEE);\r\n    }\r\n    \r\n    function updateEntryConstants(uint maxPoolSize, uint maxEntries) public onlyOwner {\r\n        if (maxPoolSize > 0) {\r\n            MAXIMIUM_POOL_SIZE = maxPoolSize;\r\n        }\r\n        if (maxEntries > 0) {\r\n            MAXIMUM_ENTRIES = maxEntries;\r\n        }\r\n    }\r\n    \r\n    function updateEntryIncrement(uint increment) public onlyOwner {\r\n        require(increment > 0, \"increment must be greater than 0.\");\r\n        ENTRY_INCREMENT = increment;\r\n    }\r\n    \r\n    /**\r\n     * Helper function to avoid array deletion\r\n     */\r\n    function addPlayer(address player) private {\r\n        assert(numPlayers <= players.length);\r\n        if (numPlayers == players.length) {\r\n            players.push(player);\r\n        } else {\r\n            players[numPlayers] = player;\r\n        }\r\n        numPlayers++;\r\n    }\r\n    \r\n    /**\r\n     * Helper function to avoid array deletion\r\n     */\r\n    function clearPlayers() private {\r\n        numPlayers = 0;\r\n    }\r\n    \r\n    /**\r\n     * Enter the lottery.\r\n     * The caller must have approved this contract to spend BLOWF tokens in advance.\r\n     * This can cause a state transition to PICKING_WINNER if the current timestamp passes the lottery run time.\r\n     */\r\n    function enter(uint256 amount_) external {\r\n        require(lotteryState == LOTTERY_STATE.OPEN, \"The lottery is not open.\");\r\n        require(lotteryPoolSize < MAXIMIUM_POOL_SIZE, \"The lottery has reached max pool size.\");\r\n        require(players.length <= MAXIMUM_ENTRIES, \"The lottery has reached max number of entries.\");\r\n        \r\n        // restrict to entry increments to prevent massive arrays\r\n        require(amount_ >= ENTRY_INCREMENT, \"Entry amount less than minimum.\");\r\n        require(amount_.mod(ENTRY_INCREMENT) == 0, \"Entry must be in increments of ENTRY_INCREMENT.\");\r\n\r\n        require(tokenContract.transferFrom(msg.sender, address(this), amount_), \"Failed to transfer tokens from your address.\");\r\n        \r\n        for (uint i = 0; i < amount_.div(ENTRY_INCREMENT); i++) {\r\n            addPlayer(msg.sender);\r\n        }\r\n        \r\n        lotteryPoolSize = lotteryPoolSize.add(amount_);\r\n\r\n        if (block.timestamp > openTimestamp + LOTTERY_RUN_TIME) {\r\n            lotteryState = LOTTERY_STATE.PICKING_WINNER;\r\n            pickWinner();\r\n        }\r\n    }\r\n    \r\n    /**\r\n     * Pick the winner by requesting a random number.\r\n     * The PICKING_WINNER state can be triggered by enter() or by calling pickWinner() directly.\r\n     * This method calls the BogRNG Oracle to generate a new random number. rewardWinner() must be called\r\n     * manually after the BogRNG Oracle supplies the random number.\r\n     */\r\n    function pickWinner() public {\r\n        if (lotteryState == LOTTERY_STATE.OPEN && block.timestamp > openTimestamp + LOTTERY_RUN_TIME) {\r\n            lotteryState = LOTTERY_STATE.PICKING_WINNER;\r\n        }\r\n        require(lotteryState == LOTTERY_STATE.PICKING_WINNER, \"The lottery is not picking winner.\");\r\n        \r\n        if (numPlayers == 0) {\r\n            resetPool();\r\n            lotteryState = LOTTERY_STATE.OPEN;\r\n            return;\r\n        }\r\n        \r\n        refreshRandomNumber();\r\n        lotteryState = LOTTERY_STATE.WAITING_RANDOM;\r\n        \r\n        // BOG LESS version for testnet\r\n        random = getRandom();\r\n        lotteryState = LOTTERY_STATE.REWARDING_WINNER;\r\n    }\r\n    \r\n    /**\r\n     * Refresh the random number by requesting a new random number from the BogRNG oracle\r\n     */\r\n    function refreshRandomNumber() private {\r\n        // IBogRandOracle(oracle).requestRandomness();\r\n    }\r\n    \r\n    function getRandom() private view returns (uint256) {\r\n        return uint256(keccak256(abi.encodePacked(block.difficulty, block.timestamp)));\r\n    }\r\n    \r\n    /**\r\n     * Randomness callback function by the BogRNG oracle\r\n     */\r\n    // function receiveRandomness(uint256 random_) external override {\r\n    //     // TODO: the lottery can be stuck here if BogRNG Oracle is down. Add an exit mechanism to refund players.\r\n        \r\n    //     require(msg.sender == oracleAddress); // Ensure the sender is the oracle\r\n    //     require(lotteryState == LOTTERY_STATE.WAITING_RANDOM, \"The lottery already received a random number.\");\r\n    //     random = random_; // Store random number\r\n        \r\n    //     lotteryState = LOTTERY_STATE.REWARDING_WINNER;\r\n    //     // We intentionally avoid calling rewardWinner() here in case of high gas cost. BogRNG has max gas usage of 200k in callback.\r\n    // }\r\n    \r\n    /**\r\n     * Select and reward the winner.\r\n     * This can only be executed after the BogRNG Oracle has called back to receiveRandomness().\r\n     * There is no automatic trigger of rewardWinner(). It must be called manually.\r\n     * TODO: add an event-time trigger oracle to call this automatically\r\n     */\r\n    function rewardWinner() public {\r\n        require(lotteryState == LOTTERY_STATE.REWARDING_WINNER, \"The lottery is not rewarding winner.\");\r\n\r\n        // 256 bit wide result of keccak256 is always greater than the number of players\r\n        uint index = uint256(keccak256(abi.encodePacked(random, block.timestamp, block.number))) % numPlayers;\r\n\r\n        address winningAddress = players[index];\r\n        \r\n        // Burn 5% of the winning pool\r\n        uint contractBalance = tokenContract.balanceOf(address(this));\r\n        require(tokenContract.transfer(burnAddress, contractBalance/20));\r\n        \r\n        // Send remaining pool to winner\r\n        contractBalance = tokenContract.balanceOf(address(this));\r\n        require(tokenContract.transfer(winningAddress, contractBalance));\r\n        \r\n        // Winning address and pool amount saved\r\n        winners.push(Winner(winningAddress, contractBalance));\r\n        emit WinnerResult(winningAddress, contractBalance);\r\n        \r\n        resetPool();\r\n        lotteryState = LOTTERY_STATE.OPEN;\r\n    }\r\n    \r\n    function getNumPlayers() public view returns (uint256) {\r\n        return numPlayers;\r\n    }\r\n    \r\n    function getPlayers() public view returns (address[] memory) {\r\n        return players;\r\n    }\r\n    \r\n    function getWinners() public view returns (Winner[] memory) {\r\n        return winners; // historical winners\r\n    }\r\n    \r\n    function getPool() public view returns (uint256) {\r\n        return lotteryPoolSize;\r\n    }\r\n    \r\n    function getOpenTimestamp() public view returns (uint256) {\r\n        return openTimestamp;\r\n    }\r\n}",
  "sourcePath": "/home/shawn/projects/blowf/lotterypwa/contracts/lottery_no_bog.sol",
  "compiler": {
    "name": "solc",
    "version": "0.8.3+commit.8d00100c.Linux.g++"
  },
  "schemaVersion": "3.3.4",
  "updatedAt": "2021-04-05T01:27:06.282Z",
  "devdoc": {
    "kind": "dev",
    "methods": {
      "owner()": {
        "details": "Returns the address of the current owner."
      },
      "renounceOwnership()": {
        "details": "Leaves the contract without owner. It will not be possible to call `onlyOwner` functions anymore. Can only be called by the current owner. NOTE: Renouncing ownership will leave the contract without an owner, thereby removing any functionality that is only available to the owner."
      },
      "transferOwnership(address)": {
        "details": "Transfers ownership of the contract to a new account (`newOwner`). Can only be called by the current owner."
      }
    },
    "version": 1
  },
  "userdoc": {
    "kind": "user",
    "methods": {
      "enter(uint256)": {
        "notice": "Enter the lottery. The caller must have approved this contract to spend BLOWF tokens in advance. This can cause a state transition to PICKING_WINNER if the current timestamp passes the lottery run time."
      },
      "pickWinner()": {
        "notice": "Pick the winner by requesting a random number. The PICKING_WINNER state can be triggered by enter() or by calling pickWinner() directly. This method calls the BogRNG Oracle to generate a new random number. rewardWinner() must be called manually after the BogRNG Oracle supplies the random number."
      },
      "rewardWinner()": {
        "notice": "Select and reward the winner. This can only be executed after the BogRNG Oracle has called back to receiveRandomness(). There is no automatic trigger of rewardWinner(). It must be called manually. TODO: add an event-time trigger oracle to call this automatically"
      }
    },
    "notice": "BlowFish Lottery Contract",
    "version": 1
  }
}