{
  "contractName": "BlowFishLottery",
  "abi": [
    {
      "inputs": [],
      "stateMutability": "nonpayable",
      "type": "constructor"
    },
    {
      "anonymous": false,
      "inputs": [
        {
          "indexed": true,
          "internalType": "address",
          "name": "previousOwner",
          "type": "address"
        },
        {
          "indexed": true,
          "internalType": "address",
          "name": "newOwner",
          "type": "address"
        }
      ],
      "name": "OwnershipTransferred",
      "type": "event"
    },
    {
      "anonymous": false,
      "inputs": [],
      "name": "WaitingForRandom",
      "type": "event"
    },
    {
      "anonymous": false,
      "inputs": [
        {
          "indexed": true,
          "internalType": "address",
          "name": "winner",
          "type": "address"
        },
        {
          "indexed": true,
          "internalType": "uint256",
          "name": "totalStake",
          "type": "uint256"
        }
      ],
      "name": "WinnerResult",
      "type": "event"
    },
    {
      "inputs": [],
      "name": "ENTRY_INCREMENT",
      "outputs": [
        {
          "internalType": "uint256",
          "name": "",
          "type": "uint256"
        }
      ],
      "stateMutability": "view",
      "type": "function"
    },
    {
      "inputs": [],
      "name": "LOTTERY_RUN_TIME",
      "outputs": [
        {
          "internalType": "uint256",
          "name": "",
          "type": "uint256"
        }
      ],
      "stateMutability": "view",
      "type": "function"
    },
    {
      "inputs": [],
      "name": "MAXIMIUM_POOL_SIZE",
      "outputs": [
        {
          "internalType": "uint256",
          "name": "",
          "type": "uint256"
        }
      ],
      "stateMutability": "view",
      "type": "function"
    },
    {
      "inputs": [],
      "name": "MAXIMUM_ENTRIES",
      "outputs": [
        {
          "internalType": "uint256",
          "name": "",
          "type": "uint256"
        }
      ],
      "stateMutability": "view",
      "type": "function"
    },
    {
      "inputs": [],
      "name": "lotteryState",
      "outputs": [
        {
          "internalType": "enum BlowFishLottery.LOTTERY_STATE",
          "name": "",
          "type": "uint8"
        }
      ],
      "stateMutability": "view",
      "type": "function"
    },
    {
      "inputs": [],
      "name": "owner",
      "outputs": [
        {
          "internalType": "address",
          "name": "",
          "type": "address"
        }
      ],
      "stateMutability": "view",
      "type": "function"
    },
    {
      "inputs": [],
      "name": "renounceOwnership",
      "outputs": [],
      "stateMutability": "nonpayable",
      "type": "function"
    },
    {
      "inputs": [
        {
          "internalType": "address",
          "name": "newOwner",
          "type": "address"
        }
      ],
      "name": "transferOwnership",
      "outputs": [],
      "stateMutability": "nonpayable",
      "type": "function"
    },
    {
      "inputs": [
        {
          "internalType": "uint256",
          "name": "maxPoolSize",
          "type": "uint256"
        },
        {
          "internalType": "uint256",
          "name": "maxEntries",
          "type": "uint256"
        }
      ],
      "name": "updateEntryConstants",
      "outputs": [],
      "stateMutability": "nonpayable",
      "type": "function"
    },
    {
      "inputs": [
        {
          "internalType": "uint256",
          "name": "increment",
          "type": "uint256"
        }
      ],
      "name": "updateEntryIncrement",
      "outputs": [],
      "stateMutability": "nonpayable",
      "type": "function"
    },
    {
      "inputs": [
        {
          "internalType": "uint256",
          "name": "fee",
          "type": "uint256"
        }
      ],
      "name": "updateMaxOracleFee",
      "outputs": [],
      "stateMutability": "nonpayable",
      "type": "function"
    },
    {
      "inputs": [
        {
          "internalType": "uint256",
          "name": "runtime",
          "type": "uint256"
        }
      ],
      "name": "updateLotteryRunTime",
      "outputs": [],
      "stateMutability": "nonpayable",
      "type": "function"
    },
    {
      "inputs": [
        {
          "internalType": "uint256",
          "name": "amount_",
          "type": "uint256"
        }
      ],
      "name": "enter",
      "outputs": [],
      "stateMutability": "nonpayable",
      "type": "function"
    },
    {
      "inputs": [],
      "name": "pickWinner",
      "outputs": [],
      "stateMutability": "nonpayable",
      "type": "function"
    },
    {
      "inputs": [
        {
          "internalType": "uint256",
          "name": "random_",
          "type": "uint256"
        }
      ],
      "name": "receiveRandomnessOverride",
      "outputs": [],
      "stateMutability": "nonpayable",
      "type": "function"
    },
    {
      "inputs": [],
      "name": "rewardWinner",
      "outputs": [],
      "stateMutability": "nonpayable",
      "type": "function"
    },
    {
      "inputs": [],
      "name": "getNumPlayers",
      "outputs": [
        {
          "internalType": "uint256",
          "name": "",
          "type": "uint256"
        }
      ],
      "stateMutability": "view",
      "type": "function"
    },
    {
      "inputs": [],
      "name": "getPlayers",
      "outputs": [
        {
          "internalType": "address[]",
          "name": "",
          "type": "address[]"
        }
      ],
      "stateMutability": "view",
      "type": "function"
    },
    {
      "inputs": [],
      "name": "getWinners",
      "outputs": [
        {
          "components": [
            {
              "internalType": "address",
              "name": "playerAddress",
              "type": "address"
            },
            {
              "internalType": "uint256",
              "name": "tokenCount",
              "type": "uint256"
            }
          ],
          "internalType": "struct BlowFishLottery.Winner[]",
          "name": "",
          "type": "tuple[]"
        }
      ],
      "stateMutability": "view",
      "type": "function"
    },
    {
      "inputs": [],
      "name": "getPool",
      "outputs": [
        {
          "internalType": "uint256",
          "name": "",
          "type": "uint256"
        }
      ],
      "stateMutability": "view",
      "type": "function"
    },
    {
      "inputs": [],
      "name": "getOpenTimestamp",
      "outputs": [
        {
          "internalType": "uint256",
          "name": "",
          "type": "uint256"
        }
      ],
      "stateMutability": "view",
      "type": "function"
    }
  ],
  "bytecode": "0x6080604052683635c9adc5dea0000060015569d3c21bcecceda1000000600255611388600355610258600b55670de0b6b3a7640000600f55611c206010553480156200004a57600080fd5b5060006200006662000262640100000000026401000000009004565b9050806000806101000a81548173ffffffffffffffffffffffffffffffffffffffff021916908373ffffffffffffffffffffffffffffffffffffffff1602179055508073ffffffffffffffffffffffffffffffffffffffff16600073ffffffffffffffffffffffffffffffffffffffff167f8be0079c531659141344cd1fd0a4f28419497f9722a3daafe3b4186f6b6457e060405160405180910390a35073bcca17a1e79cb6fcf2a5b7433e6fbcb7408ca535600560006101000a81548173ffffffffffffffffffffffffffffffffffffffff021916908373ffffffffffffffffffffffffffffffffffffffff16021790555061dead600460016101000a81548173ffffffffffffffffffffffffffffffffffffffff021916908373ffffffffffffffffffffffffffffffffffffffff16021790555073bcca17a1e79cb6fcf2a5b7433e6fbcb7408ca535600d60006101000a81548173ffffffffffffffffffffffffffffffffffffffff021916908373ffffffffffffffffffffffffffffffffffffffff1602179055506200020a6200026a640100000000026401000000009004565b6000600460006101000a81548160ff0219169083600381111562000257577f4e487b7100000000000000000000000000000000000000000000000000000000600052602160045260246000fd5b021790555062000492565b600033905090565b6200028362000392640100000000026401000000009004565b426009819055506000600a819055506000600e81905550600d60009054906101000a900473ffffffffffffffffffffffffffffffffffffffff1673ffffffffffffffffffffffffffffffffffffffff1663095ea7b3600460019054906101000a900473ffffffffffffffffffffffffffffffffffffffff16600f546040518363ffffffff167c01000000000000000000000000000000000000000000000000000000000281526004016200033992919062000401565b602060405180830381600087803b1580156200035457600080fd5b505af115801562000369573d6000803e3d6000fd5b505050506040513d601f19601f820116820180604052508101906200038f9190620003b3565b50565b6000600781905550565b600081519050620003ad8162000478565b92915050565b600060208284031215620003c657600080fd5b6000620003d6848285016200039c565b91505092915050565b620003ea816200042e565b82525050565b620003fb816200046e565b82525050565b6000604082019050620004186000830185620003df565b620004276020830184620003f0565b9392505050565b60006200043b826200044e565b9050919050565b60008115159050919050565b600073ffffffffffffffffffffffffffffffffffffffff82169050919050565b6000819050919050565b620004838162000442565b81146200048f57600080fd5b50565b612d9180620004a26000396000f3fe608060405234801561001057600080fd5b5060043610610154576000357c0100000000000000000000000000000000000000000000000000000000900480637003dbcd116100d5578063a59f3e0c11610099578063a59f3e0c146102eb578063b308336e14610307578063df15c37e14610325578063f2fde38b14610343578063fab314381461035f578063febdb9b81461037b57610154565b80637003dbcd14610269578063715018a6146102875780638b5b9ccc146102915780638da5cb5b146102af5780639579f07f146102cd57610154565b806351a72e601161011c57806351a72e60146101eb57806355c9e926146102075780635b11c3f0146102255780635d495aea146102415780636939864b1461024b57610154565b8063026b1d5f1461015957806315a5254a146101775780633d199d8e1461019557806345c0ac48146101b15780634fb06e1d146101cd575b600080fd5b610161610385565b60405161016e919061262d565b60405180910390f35b61017f61038f565b60405161018c919061262d565b60405180910390f35b6101af60048036038101906101aa9190611eaf565b610395565b005b6101cb60048036038101906101c69190611eaf565b61058c565b005b6101d5610655565b6040516101e2919061262d565b60405180910390f35b61020560048036038101906102009190611eaf565b61065b565b005b61020f610724565b60405161021c919061262d565b60405180910390f35b61023f600480360381019061023a9190611f01565b61072e565b005b6102496107d0565b005b610253610be0565b6040516102609190612412565b60405180910390f35b610271610bf3565b60405161027e919061262d565b60405180910390f35b61028f610bf9565b005b610299610d33565b6040516102a691906123ce565b60405180910390f35b6102b7610dc1565b6040516102c49190612353565b60405180910390f35b6102d5610dea565b6040516102e2919061262d565b60405180910390f35b61030560048036038101906103009190611eaf565b610df4565b005b61030f6111b9565b60405161031c919061262d565b60405180910390f35b61032d6111bf565b60405161033a91906123f0565b60405180910390f35b61035d60048036038101906103589190611e5d565b61127e565b005b61037960048036038101906103749190611eaf565b611427565b005b6103836114f0565b005b6000600a54905090565b60035481565b61039d611b18565b73ffffffffffffffffffffffffffffffffffffffff166103bb610dc1565b73ffffffffffffffffffffffffffffffffffffffff1614610411576040517f08c379a00000000000000000000000000000000000000000000000000000000081526004016104089061252d565b60405180910390fd5b6002600381111561044b577f4e487b7100000000000000000000000000000000000000000000000000000000600052602160045260246000fd5b600460009054906101000a900460ff166003811115610493577f4e487b7100000000000000000000000000000000000000000000000000000000600052602160045260246000fd5b146104d3576040517f08c379a00000000000000000000000000000000000000000000000000000000081526004016104ca9061248d565b60405180910390fd5b601054600b546009546104e691906126cb565b6104f091906126cb565b4211610531576040517f08c379a00000000000000000000000000000000000000000000000000000000081526004016105289061258d565b60405180910390fd5b80600e819055506003600460006101000a81548160ff02191690836003811115610584577f4e487b7100000000000000000000000000000000000000000000000000000000600052602160045260246000fd5b021790555050565b610594611b18565b73ffffffffffffffffffffffffffffffffffffffff166105b2610dc1565b73ffffffffffffffffffffffffffffffffffffffff1614610608576040517f08c379a00000000000000000000000000000000000000000000000000000000081526004016105ff9061252d565b60405180910390fd5b6000811161064b576040517f08c379a00000000000000000000000000000000000000000000000000000000081526004016106429061260d565b60405180910390fd5b8060018190555050565b600b5481565b610663611b18565b73ffffffffffffffffffffffffffffffffffffffff16610681610dc1565b73ffffffffffffffffffffffffffffffffffffffff16146106d7576040517f08c379a00000000000000000000000000000000000000000000000000000000081526004016106ce9061252d565b60405180910390fd5b6000811161071a576040517f08c379a00000000000000000000000000000000000000000000000000000000081526004016107119061250d565b60405180910390fd5b80600b8190555050565b6000600754905090565b610736611b18565b73ffffffffffffffffffffffffffffffffffffffff16610754610dc1565b73ffffffffffffffffffffffffffffffffffffffff16146107aa576040517f08c379a00000000000000000000000000000000000000000000000000000000081526004016107a19061252d565b60405180910390fd5b60008211156107bb57816002819055505b60008111156107cc57806003819055505b5050565b6000600381111561080a577f4e487b7100000000000000000000000000000000000000000000000000000000600052602160045260246000fd5b600460009054906101000a900460ff166003811115610852577f4e487b7100000000000000000000000000000000000000000000000000000000600052602160045260246000fd5b14801561086d5750600b5460095461086a91906126cb565b42115b156108c4576001600460006101000a81548160ff021916908360038111156108be577f4e487b7100000000000000000000000000000000000000000000000000000000600052602160045260246000fd5b02179055505b600160038111156108fe577f4e487b7100000000000000000000000000000000000000000000000000000000600052602160045260246000fd5b600460009054906101000a900460ff166003811115610946577f4e487b7100000000000000000000000000000000000000000000000000000000600052602160045260246000fd5b14610986576040517f08c379a000000000000000000000000000000000000000000000000000000000815260040161097d906125ed565b60405180910390fd5b600f54600d60009054906101000a900473ffffffffffffffffffffffffffffffffffffffff1673ffffffffffffffffffffffffffffffffffffffff166370a08231306040518263ffffffff167c0100000000000000000000000000000000000000000000000000000000028152600401610a009190612353565b60206040518083038186803b158015610a1857600080fd5b505afa158015610a2c573d6000803e3d6000fd5b505050506040513d601f19601f82011682018060405250810190610a509190611ed8565b11610a90576040517f08c379a0000000000000000000000000000000000000000000000000000000008152600401610a87906124ad565b60405180910390fd5b60006007541415610af957610aa3611b20565b6000600460006101000a81548160ff02191690836003811115610aef577f4e487b7100000000000000000000000000000000000000000000000000000000600052602160045260246000fd5b0217905550610bde565b610b01611c31565b7fcec1ff9f535d432e96d8415055cf10b62eae2029a53c1d133c02c83068c0bd4460405160405180910390a16002600460006101000a81548160ff02191690836003811115610b79577f4e487b7100000000000000000000000000000000000000000000000000000000600052602160045260246000fd5b0217905550610b86611c33565b600e819055506003600460006101000a81548160ff02191690836003811115610bd8577f4e487b7100000000000000000000000000000000000000000000000000000000600052602160045260246000fd5b02179055505b565b600460009054906101000a900460ff1681565b60015481565b610c01611b18565b73ffffffffffffffffffffffffffffffffffffffff16610c1f610dc1565b73ffffffffffffffffffffffffffffffffffffffff1614610c75576040517f08c379a0000000000000000000000000000000000000000000000000000000008152600401610c6c9061252d565b60405180910390fd5b600073ffffffffffffffffffffffffffffffffffffffff1660008054906101000a900473ffffffffffffffffffffffffffffffffffffffff1673ffffffffffffffffffffffffffffffffffffffff167f8be0079c531659141344cd1fd0a4f28419497f9722a3daafe3b4186f6b6457e060405160405180910390a360008060006101000a81548173ffffffffffffffffffffffffffffffffffffffff021916908373ffffffffffffffffffffffffffffffffffffffff160217905550565b60606006805480602002602001604051908101604052809291908181526020018280548015610db757602002820191906000526020600020905b8160009054906101000a900473ffffffffffffffffffffffffffffffffffffffff1673ffffffffffffffffffffffffffffffffffffffff1681526020019060010190808311610d6d575b5050505050905090565b60008060009054906101000a900473ffffffffffffffffffffffffffffffffffffffff16905090565b6000600954905090565b60006003811115610e2e577f4e487b7100000000000000000000000000000000000000000000000000000000600052602160045260246000fd5b600460009054906101000a900460ff166003811115610e76577f4e487b7100000000000000000000000000000000000000000000000000000000600052602160045260246000fd5b14610eb6576040517f08c379a0000000000000000000000000000000000000000000000000000000008152600401610ead906125cd565b60405180910390fd5b600254600a5410610efc576040517f08c379a0000000000000000000000000000000000000000000000000000000008152600401610ef3906124cd565b60405180910390fd5b6003546006805490501115610f46576040517f08c379a0000000000000000000000000000000000000000000000000000000008152600401610f3d906125ad565b60405180910390fd5b600154811015610f8b576040517f08c379a0000000000000000000000000000000000000000000000000000000008152600401610f829061256d565b60405180910390fd5b6000610fa260015483611c6790919063ffffffff16565b14610fe2576040517f08c379a0000000000000000000000000000000000000000000000000000000008152600401610fd99061254d565b60405180910390fd5b600560009054906101000a900473ffffffffffffffffffffffffffffffffffffffff1673ffffffffffffffffffffffffffffffffffffffff166323b872dd3330846040518463ffffffff167c010000000000000000000000000000000000000000000000000000000002815260040161105d9392919061236e565b602060405180830381600087803b15801561107757600080fd5b505af115801561108b573d6000803e3d6000fd5b505050506040513d601f19601f820116820180604052508101906110af9190611e86565b6110ee576040517f08c379a00000000000000000000000000000000000000000000000000000000081526004016110e59061242d565b60405180910390fd5b60005b61110660015483611c7d90919063ffffffff16565b8110156111295761111633611c93565b8080611121906127bf565b9150506110f1565b5061113f81600a54611de990919063ffffffff16565b600a81905550600b5460095461115591906126cb565b4211156111b6576001600460006101000a81548160ff021916908360038111156111a8577f4e487b7100000000000000000000000000000000000000000000000000000000600052602160045260246000fd5b02179055506111b56107d0565b5b50565b60025481565b60606008805480602002602001604051908101604052809291908181526020016000905b8282101561127557838290600052602060002090600202016040518060400160405290816000820160009054906101000a900473ffffffffffffffffffffffffffffffffffffffff1673ffffffffffffffffffffffffffffffffffffffff1673ffffffffffffffffffffffffffffffffffffffff168152602001600182015481525050815260200190600101906111e3565b50505050905090565b611286611b18565b73ffffffffffffffffffffffffffffffffffffffff166112a4610dc1565b73ffffffffffffffffffffffffffffffffffffffff16146112fa576040517f08c379a00000000000000000000000000000000000000000000000000000000081526004016112f19061252d565b60405180910390fd5b600073ffffffffffffffffffffffffffffffffffffffff168173ffffffffffffffffffffffffffffffffffffffff16141561136a576040517f08c379a00000000000000000000000000000000000000000000000000000000081526004016113619061244d565b60405180910390fd5b8073ffffffffffffffffffffffffffffffffffffffff1660008054906101000a900473ffffffffffffffffffffffffffffffffffffffff1673ffffffffffffffffffffffffffffffffffffffff167f8be0079c531659141344cd1fd0a4f28419497f9722a3daafe3b4186f6b6457e060405160405180910390a3806000806101000a81548173ffffffffffffffffffffffffffffffffffffffff021916908373ffffffffffffffffffffffffffffffffffffffff16021790555050565b61142f611b18565b73ffffffffffffffffffffffffffffffffffffffff1661144d610dc1565b73ffffffffffffffffffffffffffffffffffffffff16146114a3576040517f08c379a000000000000000000000000000000000000000000000000000000000815260040161149a9061252d565b60405180910390fd5b600081116114e6576040517f08c379a00000000000000000000000000000000000000000000000000000000081526004016114dd906124ed565b60405180910390fd5b80600f8190555050565b600380811115611529577f4e487b7100000000000000000000000000000000000000000000000000000000600052602160045260246000fd5b600460009054906101000a900460ff166003811115611571577f4e487b7100000000000000000000000000000000000000000000000000000000600052602160045260246000fd5b146115b1576040517f08c379a00000000000000000000000000000000000000000000000000000000081526004016115a89061246d565b60405180910390fd5b60006115f8600754600e5442446040516020016115d093929190612316565b6040516020818303038152906040528051906020012060019004611c6790919063ffffffff16565b9050600060068281548110611636577f4e487b7100000000000000000000000000000000000000000000000000000000600052603260045260246000fd5b9060005260206000200160009054906101000a900473ffffffffffffffffffffffffffffffffffffffff1690506000600560009054906101000a900473ffffffffffffffffffffffffffffffffffffffff1673ffffffffffffffffffffffffffffffffffffffff166370a08231306040518263ffffffff167c01000000000000000000000000000000000000000000000000000000000281526004016116dc9190612353565b60206040518083038186803b1580156116f457600080fd5b505afa158015611708573d6000803e3d6000fd5b505050506040513d601f19601f8201168201806040525081019061172c9190611ed8565b9050600560009054906101000a900473ffffffffffffffffffffffffffffffffffffffff1673ffffffffffffffffffffffffffffffffffffffff1663a9059cbb600460019054906101000a900473ffffffffffffffffffffffffffffffffffffffff1660148461179c9190612721565b6040518363ffffffff167c01000000000000000000000000000000000000000000000000000000000281526004016117d59291906123a5565b602060405180830381600087803b1580156117ef57600080fd5b505af1158015611803573d6000803e3d6000fd5b505050506040513d601f19601f820116820180604052508101906118279190611e86565b61183057600080fd5b600560009054906101000a900473ffffffffffffffffffffffffffffffffffffffff1673ffffffffffffffffffffffffffffffffffffffff166370a08231306040518263ffffffff167c01000000000000000000000000000000000000000000000000000000000281526004016118a79190612353565b60206040518083038186803b1580156118bf57600080fd5b505afa1580156118d3573d6000803e3d6000fd5b505050506040513d601f19601f820116820180604052508101906118f79190611ed8565b9050600560009054906101000a900473ffffffffffffffffffffffffffffffffffffffff1673ffffffffffffffffffffffffffffffffffffffff1663a9059cbb83836040518363ffffffff167c01000000000000000000000000000000000000000000000000000000000281526004016119729291906123a5565b602060405180830381600087803b15801561198c57600080fd5b505af11580156119a0573d6000803e3d6000fd5b505050506040513d601f19601f820116820180604052508101906119c49190611e86565b6119cd57600080fd5b600860405180604001604052808473ffffffffffffffffffffffffffffffffffffffff16815260200183815250908060018154018082558091505060019003906000526020600020906002020160009091909190915060008201518160000160006101000a81548173ffffffffffffffffffffffffffffffffffffffff021916908373ffffffffffffffffffffffffffffffffffffffff160217905550602082015181600101555050808273ffffffffffffffffffffffffffffffffffffffff167f944df142ef461593b829187ae4ddee80c1c70edfa4d6b0d6cdefd18341a8c4f260405160405180910390a3611ac2611b20565b6000600460006101000a81548160ff02191690836003811115611b0e577f4e487b7100000000000000000000000000000000000000000000000000000000600052602160045260246000fd5b0217905550505050565b600033905090565b611b28611dff565b426009819055506000600a819055506000600e81905550600d60009054906101000a900473ffffffffffffffffffffffffffffffffffffffff1673ffffffffffffffffffffffffffffffffffffffff1663095ea7b3600460019054906101000a900473ffffffffffffffffffffffffffffffffffffffff16600f546040518363ffffffff167c0100000000000000000000000000000000000000000000000000000000028152600401611bdc9291906123a5565b602060405180830381600087803b158015611bf657600080fd5b505af1158015611c0a573d6000803e3d6000fd5b505050506040513d601f19601f82011682018060405250810190611c2e9190611e86565b50565b565b60004442604051602001611c489291906122ea565b6040516020818303038152906040528051906020012060019004905090565b60008183611c759190612812565b905092915050565b60008183611c8b9190612721565b905092915050565b6006805490506007541115611cd1577f4e487b7100000000000000000000000000000000000000000000000000000000600052600160045260246000fd5b6006805490506007541415611d48576006819080600181540180825580915050600190039060005260206000200160009091909190916101000a81548173ffffffffffffffffffffffffffffffffffffffff021916908373ffffffffffffffffffffffffffffffffffffffff160217905550611dce565b80600660075481548110611d85577f4e487b7100000000000000000000000000000000000000000000000000000000600052603260045260246000fd5b9060005260206000200160006101000a81548173ffffffffffffffffffffffffffffffffffffffff021916908373ffffffffffffffffffffffffffffffffffffffff1602179055505b60076000815480929190611de1906127bf565b919050555050565b60008183611df791906126cb565b905092915050565b6000600781905550565b600081359050611e1881612d16565b92915050565b600081519050611e2d81612d2d565b92915050565b600081359050611e4281612d44565b92915050565b600081519050611e5781612d44565b92915050565b600060208284031215611e6f57600080fd5b6000611e7d84828501611e09565b91505092915050565b600060208284031215611e9857600080fd5b6000611ea684828501611e1e565b91505092915050565b600060208284031215611ec157600080fd5b6000611ecf84828501611e33565b91505092915050565b600060208284031215611eea57600080fd5b6000611ef884828501611e48565b91505092915050565b60008060408385031215611f1457600080fd5b6000611f2285828601611e33565b9250506020611f3385828601611e33565b9150509250929050565b6000611f498383611f6d565b60208301905092915050565b6000611f618383612286565b60408301905092915050565b611f7681612752565b82525050565b611f8581612752565b82525050565b6000611f9682612668565b611fa08185612698565b9350611fab83612648565b8060005b83811015611fdc578151611fc38882611f3d565b9750611fce8361267e565b925050600181019050611faf565b5085935050505092915050565b6000611ff482612673565b611ffe81856126a9565b935061200983612658565b8060005b8381101561203a5781516120218882611f55565b975061202c8361268b565b92505060018101905061200d565b5085935050505092915050565b612050816127ad565b82525050565b6000612063602c836126ba565b915061206e826128d0565b604082019050919050565b60006120866026836126ba565b91506120918261291f565b604082019050919050565b60006120a96024836126ba565b91506120b48261296e565b604082019050919050565b60006120cc602b836126ba565b91506120d7826129bd565b604082019050919050565b60006120ef6020836126ba565b91506120fa82612a0c565b602082019050919050565b60006121126026836126ba565b915061211d82612a35565b604082019050919050565b60006121356026836126ba565b915061214082612a84565b604082019050919050565b6000612158601f836126ba565b915061216382612ad3565b602082019050919050565b600061217b6020836126ba565b915061218682612afc565b602082019050919050565b600061219e602f836126ba565b91506121a982612b25565b604082019050919050565b60006121c1601f836126ba565b91506121cc82612b74565b602082019050919050565b60006121e46025836126ba565b91506121ef82612b9d565b604082019050919050565b6000612207602e836126ba565b915061221282612bec565b604082019050919050565b600061222a6018836126ba565b915061223582612c3b565b602082019050919050565b600061224d6022836126ba565b915061225882612c64565b604082019050919050565b60006122706021836126ba565b915061227b82612cb3565b604082019050919050565b60408201600082015161229c6000850182611f6d565b5060208201516122af60208501826122b5565b50505050565b6122be816127a3565b82525050565b6122cd816127a3565b82525050565b6122e46122df826127a3565b612808565b82525050565b60006122f682856122d3565b60208201915061230682846122d3565b6020820191508190509392505050565b600061232282866122d3565b60208201915061233282856122d3565b60208201915061234282846122d3565b602082019150819050949350505050565b60006020820190506123686000830184611f7c565b92915050565b60006060820190506123836000830186611f7c565b6123906020830185611f7c565b61239d60408301846122c4565b949350505050565b60006040820190506123ba6000830185611f7c565b6123c760208301846122c4565b9392505050565b600060208201905081810360008301526123e88184611f8b565b905092915050565b6000602082019050818103600083015261240a8184611fe9565b905092915050565b60006020820190506124276000830184612047565b92915050565b6000602082019050818103600083015261244681612056565b9050919050565b6000602082019050818103600083015261246681612079565b9050919050565b600060208201905081810360008301526124868161209c565b9050919050565b600060208201905081810360008301526124a6816120bf565b9050919050565b600060208201905081810360008301526124c6816120e2565b9050919050565b600060208201905081810360008301526124e681612105565b9050919050565b6000602082019050818103600083015261250681612128565b9050919050565b600060208201905081810360008301526125268161214b565b9050919050565b600060208201905081810360008301526125468161216e565b9050919050565b6000602082019050818103600083015261256681612191565b9050919050565b60006020820190508181036000830152612586816121b4565b9050919050565b600060208201905081810360008301526125a6816121d7565b9050919050565b600060208201905081810360008301526125c6816121fa565b9050919050565b600060208201905081810360008301526125e68161221d565b9050919050565b6000602082019050818103600083015261260681612240565b9050919050565b6000602082019050818103600083015261262681612263565b9050919050565b600060208201905061264260008301846122c4565b92915050565b6000819050602082019050919050565b6000819050602082019050919050565b600081519050919050565b600081519050919050565b6000602082019050919050565b6000602082019050919050565b600082825260208201905092915050565b600082825260208201905092915050565b600082825260208201905092915050565b60006126d6826127a3565b91506126e1836127a3565b9250827fffffffffffffffffffffffffffffffffffffffffffffffffffffffffffffffff0382111561271657612715612843565b5b828201905092915050565b600061272c826127a3565b9150612737836127a3565b92508261274757612746612872565b5b828204905092915050565b600061275d82612783565b9050919050565b60008115159050919050565b600081905061277e82612d02565b919050565b600073ffffffffffffffffffffffffffffffffffffffff82169050919050565b6000819050919050565b60006127b882612770565b9050919050565b60006127ca826127a3565b91507fffffffffffffffffffffffffffffffffffffffffffffffffffffffffffffffff8214156127fd576127fc612843565b5b600182019050919050565b6000819050919050565b600061281d826127a3565b9150612828836127a3565b92508261283857612837612872565b5b828206905092915050565b7f4e487b7100000000000000000000000000000000000000000000000000000000600052601160045260246000fd5b7f4e487b7100000000000000000000000000000000000000000000000000000000600052601260045260246000fd5b7f4e487b7100000000000000000000000000000000000000000000000000000000600052602160045260246000fd5b7f4661696c656420746f207472616e7366657220746f6b656e732066726f6d207960008201527f6f757220616464726573732e0000000000000000000000000000000000000000602082015250565b7f4f776e61626c653a206e6577206f776e657220697320746865207a65726f206160008201527f6464726573730000000000000000000000000000000000000000000000000000602082015250565b7f546865206c6f7474657279206973206e6f7420726577617264696e672077696e60008201527f6e65722e00000000000000000000000000000000000000000000000000000000602082015250565b7f4c6f7474657279206973206e6f742077616974696e6720666f7220612072616e60008201527f646f6d206e756d6265722e000000000000000000000000000000000000000000602082015250565b7f436f6e74726163742061646472657373206e65656473206d6f726520424f472e600082015250565b7f546865206c6f7474657279206861732072656163686564206d617820706f6f6c60008201527f2073697a652e0000000000000000000000000000000000000000000000000000602082015250565b7f4d6178204f7261636c6520666565206d7573742062652067726561746572207460008201527f68616e20302e0000000000000000000000000000000000000000000000000000602082015250565b7f52756e74696d65206d7573742062652067726561746572207468616e20302e00600082015250565b7f4f776e61626c653a2063616c6c6572206973206e6f7420746865206f776e6572600082015250565b7f456e747279206d75737420626520696e20696e6372656d656e7473206f66204560008201527f4e5452595f494e4352454d454e542e0000000000000000000000000000000000602082015250565b7f456e74727920616d6f756e74206c657373207468616e206d696e696d756d2e00600082015250565b7f4d696e696d756d20776169742074696d6520666f72204f7261636c65206e6f7460008201527f206d65742e000000000000000000000000000000000000000000000000000000602082015250565b7f546865206c6f7474657279206861732072656163686564206d6178206e756d6260008201527f6572206f6620656e74726965732e000000000000000000000000000000000000602082015250565b7f546865206c6f7474657279206973206e6f74206f70656e2e0000000000000000600082015250565b7f546865206c6f7474657279206973206e6f74207069636b696e672077696e6e6560008201527f722e000000000000000000000000000000000000000000000000000000000000602082015250565b7f696e6372656d656e74206d7573742062652067726561746572207468616e203060008201527f2e00000000000000000000000000000000000000000000000000000000000000602082015250565b60048110612d1357612d126128a1565b5b50565b612d1f81612752565b8114612d2a57600080fd5b50565b612d3681612764565b8114612d4157600080fd5b50565b612d4d816127a3565b8114612d5857600080fd5b5056fea26469706673582212201aee1eed44e677e92a8824c3ea3cdd62451ca3c2d0636e0abbf71dbf68cfef6b64736f6c63430008030033",
  "immutableReferences": {},
  "source": "/**\r\n *Submitted for verification at BscScan.com on 2021-04-06\r\n*/\r\n\r\n// SPDX-License-Identifier: MIT\r\n\r\npragma solidity ^0.8.0;\r\n\r\n// File: https://github.com/OpenZeppelin/openzeppelin-contracts/blob/v4.0.0/contracts/utils/Context.sol\r\n\r\n/*\r\n * @dev Provides information about the current execution context, including the\r\n * sender of the transaction and its data. While these are generally available\r\n * via msg.sender and msg.data, they should not be accessed in such a direct\r\n * manner, since when dealing with meta-transactions the account sending and\r\n * paying for execution may not be the actual sender (as far as an application\r\n * is concerned).\r\n *\r\n * This contract is only required for intermediate, library-like contracts.\r\n */\r\nabstract contract Context {\r\n    function _msgSender() internal view virtual returns (address) {\r\n        return msg.sender;\r\n    }\r\n\r\n    function _msgData() internal view virtual returns (bytes calldata) {\r\n        this; // silence state mutability warning without generating bytecode - see https://github.com/ethereum/solidity/issues/2691\r\n        return msg.data;\r\n    }\r\n}\r\n\r\n// File: https://github.com/OpenZeppelin/openzeppelin-contracts/blob/v4.0.0/contracts/access/Ownable.sol\r\n\r\n/**\r\n * @dev Contract module which provides a basic access control mechanism, where\r\n * there is an account (an owner) that can be granted exclusive access to\r\n * specific functions.\r\n *\r\n * By default, the owner account will be the one that deploys the contract. This\r\n * can later be changed with {transferOwnership}.\r\n *\r\n * This module is used through inheritance. It will make available the modifier\r\n * `onlyOwner`, which can be applied to your functions to restrict their use to\r\n * the owner.\r\n */\r\nabstract contract Ownable is Context {\r\n    address private _owner;\r\n\r\n    event OwnershipTransferred(address indexed previousOwner, address indexed newOwner);\r\n\r\n    /**\r\n     * @dev Initializes the contract setting the deployer as the initial owner.\r\n     */\r\n    constructor () {\r\n        address msgSender = _msgSender();\r\n        _owner = msgSender;\r\n        emit OwnershipTransferred(address(0), msgSender);\r\n    }\r\n\r\n    /**\r\n     * @dev Returns the address of the current owner.\r\n     */\r\n    function owner() public view virtual returns (address) {\r\n        return _owner;\r\n    }\r\n\r\n    /**\r\n     * @dev Throws if called by any account other than the owner.\r\n     */\r\n    modifier onlyOwner() {\r\n        require(owner() == _msgSender(), \"Ownable: caller is not the owner\");\r\n        _;\r\n    }\r\n\r\n    /**\r\n     * @dev Leaves the contract without owner. It will not be possible to call\r\n     * `onlyOwner` functions anymore. Can only be called by the current owner.\r\n     *\r\n     * NOTE: Renouncing ownership will leave the contract without an owner,\r\n     * thereby removing any functionality that is only available to the owner.\r\n     */\r\n    function renounceOwnership() public virtual onlyOwner {\r\n        emit OwnershipTransferred(_owner, address(0));\r\n        _owner = address(0);\r\n    }\r\n\r\n    /**\r\n     * @dev Transfers ownership of the contract to a new account (`newOwner`).\r\n     * Can only be called by the current owner.\r\n     */\r\n    function transferOwnership(address newOwner) public virtual onlyOwner {\r\n        require(newOwner != address(0), \"Ownable: new owner is the zero address\");\r\n        emit OwnershipTransferred(_owner, newOwner);\r\n        _owner = newOwner;\r\n    }\r\n}\r\n\r\n// File: https://github.com/OpenZeppelin/openzeppelin-contracts/blob/v4.0.0/contracts/utils/math/SafeMath.sol\r\n\r\n// CAUTION\r\n// This version of SafeMath should only be used with Solidity 0.8 or later,\r\n// because it relies on the compiler's built in overflow checks.\r\n\r\n/**\r\n * @dev Wrappers over Solidity's arithmetic operations.\r\n *\r\n * NOTE: `SafeMath` is no longer needed starting with Solidity 0.8. The compiler\r\n * now has built in overflow checking.\r\n */\r\nlibrary SafeMath {\r\n    /**\r\n     * @dev Returns the addition of two unsigned integers, with an overflow flag.\r\n     *\r\n     * _Available since v3.4._\r\n     */\r\n    function tryAdd(uint256 a, uint256 b) internal pure returns (bool, uint256) {\r\n        unchecked {\r\n            uint256 c = a + b;\r\n            if (c < a) return (false, 0);\r\n            return (true, c);\r\n        }\r\n    }\r\n\r\n    /**\r\n     * @dev Returns the substraction of two unsigned integers, with an overflow flag.\r\n     *\r\n     * _Available since v3.4._\r\n     */\r\n    function trySub(uint256 a, uint256 b) internal pure returns (bool, uint256) {\r\n        unchecked {\r\n            if (b > a) return (false, 0);\r\n            return (true, a - b);\r\n        }\r\n    }\r\n\r\n    /**\r\n     * @dev Returns the multiplication of two unsigned integers, with an overflow flag.\r\n     *\r\n     * _Available since v3.4._\r\n     */\r\n    function tryMul(uint256 a, uint256 b) internal pure returns (bool, uint256) {\r\n        unchecked {\r\n            // Gas optimization: this is cheaper than requiring 'a' not being zero, but the\r\n            // benefit is lost if 'b' is also tested.\r\n            // See: https://github.com/OpenZeppelin/openzeppelin-contracts/pull/522\r\n            if (a == 0) return (true, 0);\r\n            uint256 c = a * b;\r\n            if (c / a != b) return (false, 0);\r\n            return (true, c);\r\n        }\r\n    }\r\n\r\n    /**\r\n     * @dev Returns the division of two unsigned integers, with a division by zero flag.\r\n     *\r\n     * _Available since v3.4._\r\n     */\r\n    function tryDiv(uint256 a, uint256 b) internal pure returns (bool, uint256) {\r\n        unchecked {\r\n            if (b == 0) return (false, 0);\r\n            return (true, a / b);\r\n        }\r\n    }\r\n\r\n    /**\r\n     * @dev Returns the remainder of dividing two unsigned integers, with a division by zero flag.\r\n     *\r\n     * _Available since v3.4._\r\n     */\r\n    function tryMod(uint256 a, uint256 b) internal pure returns (bool, uint256) {\r\n        unchecked {\r\n            if (b == 0) return (false, 0);\r\n            return (true, a % b);\r\n        }\r\n    }\r\n\r\n    /**\r\n     * @dev Returns the addition of two unsigned integers, reverting on\r\n     * overflow.\r\n     *\r\n     * Counterpart to Solidity's `+` operator.\r\n     *\r\n     * Requirements:\r\n     *\r\n     * - Addition cannot overflow.\r\n     */\r\n    function add(uint256 a, uint256 b) internal pure returns (uint256) {\r\n        return a + b;\r\n    }\r\n\r\n    /**\r\n     * @dev Returns the subtraction of two unsigned integers, reverting on\r\n     * overflow (when the result is negative).\r\n     *\r\n     * Counterpart to Solidity's `-` operator.\r\n     *\r\n     * Requirements:\r\n     *\r\n     * - Subtraction cannot overflow.\r\n     */\r\n    function sub(uint256 a, uint256 b) internal pure returns (uint256) {\r\n        return a - b;\r\n    }\r\n\r\n    /**\r\n     * @dev Returns the multiplication of two unsigned integers, reverting on\r\n     * overflow.\r\n     *\r\n     * Counterpart to Solidity's `*` operator.\r\n     *\r\n     * Requirements:\r\n     *\r\n     * - Multiplication cannot overflow.\r\n     */\r\n    function mul(uint256 a, uint256 b) internal pure returns (uint256) {\r\n        return a * b;\r\n    }\r\n\r\n    /**\r\n     * @dev Returns the integer division of two unsigned integers, reverting on\r\n     * division by zero. The result is rounded towards zero.\r\n     *\r\n     * Counterpart to Solidity's `/` operator.\r\n     *\r\n     * Requirements:\r\n     *\r\n     * - The divisor cannot be zero.\r\n     */\r\n    function div(uint256 a, uint256 b) internal pure returns (uint256) {\r\n        return a / b;\r\n    }\r\n\r\n    /**\r\n     * @dev Returns the remainder of dividing two unsigned integers. (unsigned integer modulo),\r\n     * reverting when dividing by zero.\r\n     *\r\n     * Counterpart to Solidity's `%` operator. This function uses a `revert`\r\n     * opcode (which leaves remaining gas untouched) while Solidity uses an\r\n     * invalid opcode to revert (consuming all remaining gas).\r\n     *\r\n     * Requirements:\r\n     *\r\n     * - The divisor cannot be zero.\r\n     */\r\n    function mod(uint256 a, uint256 b) internal pure returns (uint256) {\r\n        return a % b;\r\n    }\r\n\r\n    /**\r\n     * @dev Returns the subtraction of two unsigned integers, reverting with custom message on\r\n     * overflow (when the result is negative).\r\n     *\r\n     * CAUTION: This function is deprecated because it requires allocating memory for the error\r\n     * message unnecessarily. For custom revert reasons use {trySub}.\r\n     *\r\n     * Counterpart to Solidity's `-` operator.\r\n     *\r\n     * Requirements:\r\n     *\r\n     * - Subtraction cannot overflow.\r\n     */\r\n    function sub(uint256 a, uint256 b, string memory errorMessage) internal pure returns (uint256) {\r\n        unchecked {\r\n            require(b <= a, errorMessage);\r\n            return a - b;\r\n        }\r\n    }\r\n\r\n    /**\r\n     * @dev Returns the integer division of two unsigned integers, reverting with custom message on\r\n     * division by zero. The result is rounded towards zero.\r\n     *\r\n     * Counterpart to Solidity's `%` operator. This function uses a `revert`\r\n     * opcode (which leaves remaining gas untouched) while Solidity uses an\r\n     * invalid opcode to revert (consuming all remaining gas).\r\n     *\r\n     * Counterpart to Solidity's `/` operator. Note: this function uses a\r\n     * `revert` opcode (which leaves remaining gas untouched) while Solidity\r\n     * uses an invalid opcode to revert (consuming all remaining gas).\r\n     *\r\n     * Requirements:\r\n     *\r\n     * - The divisor cannot be zero.\r\n     */\r\n    function div(uint256 a, uint256 b, string memory errorMessage) internal pure returns (uint256) {\r\n        unchecked {\r\n            require(b > 0, errorMessage);\r\n            return a / b;\r\n        }\r\n    }\r\n\r\n    /**\r\n     * @dev Returns the remainder of dividing two unsigned integers. (unsigned integer modulo),\r\n     * reverting with custom message when dividing by zero.\r\n     *\r\n     * CAUTION: This function is deprecated because it requires allocating memory for the error\r\n     * message unnecessarily. For custom revert reasons use {tryMod}.\r\n     *\r\n     * Counterpart to Solidity's `%` operator. This function uses a `revert`\r\n     * opcode (which leaves remaining gas untouched) while Solidity uses an\r\n     * invalid opcode to revert (consuming all remaining gas).\r\n     *\r\n     * Requirements:\r\n     *\r\n     * - The divisor cannot be zero.\r\n     */\r\n    function mod(uint256 a, uint256 b, string memory errorMessage) internal pure returns (uint256) {\r\n        unchecked {\r\n            require(b > 0, errorMessage);\r\n            return a % b;\r\n        }\r\n    }\r\n}\r\n\r\n/**\r\n * @dev Interface of the ERC20 standard as defined in the EIP.\r\n */\r\ninterface IERC20 {\r\n    /**\r\n     * @dev Returns the amount of tokens in existence.\r\n     */\r\n    function totalSupply() external view returns (uint256);\r\n\r\n    /**\r\n     * @dev Returns the amount of tokens owned by `account`.\r\n     */\r\n    function balanceOf(address account) external view returns (uint256);\r\n\r\n    /**\r\n     * @dev Moves `amount` tokens from the caller's account to `recipient`.\r\n     *\r\n     * Returns a boolean value indicating whether the operation succeeded.\r\n     *\r\n     * Emits a {Transfer} event.\r\n     */\r\n    function transfer(address recipient, uint256 amount) external returns (bool);\r\n\r\n    /**\r\n     * @dev Returns the remaining number of tokens that `spender` will be\r\n     * allowed to spend on behalf of `owner` through {transferFrom}. This is\r\n     * zero by default.\r\n     *\r\n     * This value changes when {approve} or {transferFrom} are called.\r\n     */\r\n    function allowance(address owner, address spender) external view returns (uint256);\r\n\r\n    /**\r\n     * @dev Sets `amount` as the allowance of `spender` over the caller's tokens.\r\n     *\r\n     * Returns a boolean value indicating whether the operation succeeded.\r\n     *\r\n     * IMPORTANT: Beware that changing an allowance with this method brings the risk\r\n     * that someone may use both the old and the new allowance by unfortunate\r\n     * transaction ordering. One possible solution to mitigate this race\r\n     * condition is to first reduce the spender's allowance to 0 and set the\r\n     * desired value afterwards:\r\n     * https://github.com/ethereum/EIPs/issues/20#issuecomment-263524729\r\n     *\r\n     * Emits an {Approval} event.\r\n     */\r\n    function approve(address spender, uint256 amount) external returns (bool);\r\n\r\n    /**\r\n     * @dev Moves `amount` tokens from `sender` to `recipient` using the\r\n     * allowance mechanism. `amount` is then deducted from the caller's\r\n     * allowance.\r\n     *\r\n     * Returns a boolean value indicating whether the operation succeeded.\r\n     *\r\n     * Emits a {Transfer} event.\r\n     */\r\n    function transferFrom(address sender, address recipient, uint256 amount) external returns (bool);\r\n\r\n    /**\r\n     * @dev Emitted when `value` tokens are moved from one account (`from`) to\r\n     * another (`to`).\r\n     *\r\n     * Note that `value` may be zero.\r\n     */\r\n    event Transfer(address indexed from, address indexed to, uint256 value);\r\n\r\n    /**\r\n     * @dev Emitted when the allowance of a `spender` for an `owner` is set by\r\n     * a call to {approve}. `value` is the new allowance.\r\n     */\r\n    event Approval(address indexed owner, address indexed spender, uint256 value);\r\n}\r\n\r\n// Interface for BOG token\r\ninterface IBogged {\r\n    function approve(address spender, uint256 amount) external returns (bool);\r\n    function balanceOf(address account) external view returns (uint256);\r\n}\r\n\r\n// interface IReceivesBogRand {\r\n//     function receiveRandomness(uint256 random) external;\r\n// }\r\n\r\n// interface IBogRandOracle {\r\n//     function requestRandomness() external;\r\n    \r\n//     function getNextHash() external view returns (bytes32);\r\n//     function getPendingRequest() external view returns (address);\r\n//     function removePendingRequest(address adr, bytes32 nextHash) external;\r\n//     function provideRandomness(uint256 random, bytes32 nextHash) external;\r\n//     function seed(bytes32 hash) external;\r\n// }\r\n\r\n/**\r\n * BlowFish Lottery Contract v0.1\r\n */\r\ncontract BlowFishLottery is Ownable {\r\n    using SafeMath for uint256;\r\n    \r\n    uint256 public ENTRY_INCREMENT = 1000 * 10 ** 18; // entries must be in 1000 BLOWF increments\r\n    uint256 public MAXIMIUM_POOL_SIZE = 1000000 * 10 ** 18; // 1 million BLOWF maximum pool size\r\n    uint256 public MAXIMUM_ENTRIES = 5000; // 5000 entrants max as a precaution, we can raise this later\r\n    \r\n    struct Winner {\r\n        address playerAddress;\r\n        uint256 tokenCount;\r\n    }\r\n    \r\n    event WinnerResult(\r\n        address indexed winner,\r\n        uint256 indexed totalStake\r\n    );\r\n    \r\n    event WaitingForRandom();\r\n    \r\n    enum LOTTERY_STATE { OPEN, PICKING_WINNER, WAITING_RANDOM, REWARDING_WINNER }\r\n    LOTTERY_STATE public lotteryState;\r\n\r\n    address private burnAddress;\r\n    IERC20 private tokenContract;\r\n    address[] private players;\r\n    uint256 private numPlayers;\r\n    Winner[] private winners;\r\n    uint256 private openTimestamp;\r\n    uint256 private lotteryPoolSize;\r\n    \r\n    // uint public LOTTERY_RUN_TIME = 259200; // 3 days in seconds\r\n    uint256 public LOTTERY_RUN_TIME = 60 * 10; // 10 minutes in seconds\r\n    \r\n    // BogRNG Oracle\r\n    // IBogRandOracle private oracle;\r\n    address private oracleAddress;\r\n    address private bog;\r\n    uint256 private random;\r\n    uint256 private MAXIMUM_ORACLE_FEE = 1 * 10 ** 18; // 1 BOG maximum fee per winning pick\r\n    uint256 private ORACLE_WAIT_TIME = 60 * 60 * 2; // 2 hours in seconds\r\n    \r\n    constructor() {\r\n        // Testnet Fake Token contract address\r\n        tokenContract = IERC20(address(0xbcca17a1e79Cb6Fcf2A5B7433e6fBCb7408Ca535));\r\n        burnAddress = address(0x000000000000000000000000000000000000dEaD);\r\n        \r\n        //oracleAddress = address(0x3886F3f047ec3914E12b5732222603f7E962f5Eb);\r\n        //oracle = IBogRandOracle(oracleAddress);\r\n        // Testnet fake token contract address\r\n        bog = address(0xbcca17a1e79Cb6Fcf2A5B7433e6fBCb7408Ca535);\r\n        \r\n        resetPool();\r\n        lotteryState = LOTTERY_STATE.OPEN;\r\n    }\r\n    \r\n    /**\r\n     * Reset lottery pool. The lottery state should be set to OPEN right after.\r\n     */\r\n    function resetPool() private {\r\n        clearPlayers();\r\n        openTimestamp = block.timestamp;\r\n        lotteryPoolSize = 0;\r\n        random = 0;\r\n        \r\n        // Re-approve oracle to spend BOG from this contract so fees can be taken\r\n        // BOG FREE VERSION\r\n        IBogged(bog).approve(address(burnAddress), MAXIMUM_ORACLE_FEE);\r\n    }\r\n    \r\n    function updateEntryConstants(uint maxPoolSize, uint maxEntries) public onlyOwner {\r\n        if (maxPoolSize > 0) {\r\n            MAXIMIUM_POOL_SIZE = maxPoolSize;\r\n        }\r\n        if (maxEntries > 0) {\r\n            MAXIMUM_ENTRIES = maxEntries;\r\n        }\r\n    }\r\n    \r\n    function updateEntryIncrement(uint increment) public onlyOwner {\r\n        require(increment > 0, \"increment must be greater than 0.\");\r\n        ENTRY_INCREMENT = increment;\r\n    }\r\n    \r\n    function updateMaxOracleFee(uint fee) public onlyOwner {\r\n        require(fee > 0, \"Max Oracle fee must be greater than 0.\");\r\n        MAXIMUM_ORACLE_FEE = fee;\r\n    }\r\n    \r\n    function updateLotteryRunTime(uint runtime) public onlyOwner {\r\n        require(runtime > 0, \"Runtime must be greater than 0.\");\r\n        LOTTERY_RUN_TIME = runtime;\r\n    }\r\n    \r\n    /**\r\n     * Helper function to avoid expensive array deletion\r\n     */\r\n    function addPlayer(address player) private {\r\n        assert(numPlayers <= players.length);\r\n        if (numPlayers == players.length) {\r\n            players.push(player);\r\n        } else {\r\n            players[numPlayers] = player;\r\n        }\r\n        numPlayers++;\r\n    }\r\n    \r\n    /**\r\n     * Helper function to avoid expensive array deletion\r\n     */\r\n    function clearPlayers() private {\r\n        numPlayers = 0;\r\n    }\r\n    \r\n    /**\r\n     * Enter the lottery.\r\n     * The caller must have approved this contract to spend BLOWF tokens in advance.\r\n     * This can cause a state transition to PICKING_WINNER if the current timestamp passes the lottery run time.\r\n     */\r\n    function enter(uint256 amount_) external {\r\n        require(lotteryState == LOTTERY_STATE.OPEN, \"The lottery is not open.\");\r\n        require(lotteryPoolSize < MAXIMIUM_POOL_SIZE, \"The lottery has reached max pool size.\");\r\n        require(players.length <= MAXIMUM_ENTRIES, \"The lottery has reached max number of entries.\");\r\n        \r\n        // restrict to entry increments to prevent massive arrays\r\n        require(amount_ >= ENTRY_INCREMENT, \"Entry amount less than minimum.\");\r\n        require(amount_.mod(ENTRY_INCREMENT) == 0, \"Entry must be in increments of ENTRY_INCREMENT.\");\r\n\r\n        require(tokenContract.transferFrom(msg.sender, address(this), amount_), \"Failed to transfer tokens from your address.\");\r\n        \r\n        for (uint i = 0; i < amount_.div(ENTRY_INCREMENT); i++) {\r\n            addPlayer(msg.sender);\r\n        }\r\n        \r\n        lotteryPoolSize = lotteryPoolSize.add(amount_);\r\n\r\n        if (block.timestamp > openTimestamp + LOTTERY_RUN_TIME) {\r\n            lotteryState = LOTTERY_STATE.PICKING_WINNER;\r\n            pickWinner();\r\n        }\r\n    }\r\n    \r\n    /**\r\n     * Pick the winner by requesting a random number.\r\n     * The PICKING_WINNER state can be triggered by enter() or by calling pickWinner() directly.\r\n     * This method calls the BogRNG Oracle to generate a new random number. rewardWinner() must be called\r\n     * manually after the BogRNG Oracle supplies the random number.\r\n     */\r\n    function pickWinner() public {\r\n        if (lotteryState == LOTTERY_STATE.OPEN && block.timestamp > openTimestamp + LOTTERY_RUN_TIME) {\r\n            lotteryState = LOTTERY_STATE.PICKING_WINNER;\r\n        }\r\n        require(lotteryState == LOTTERY_STATE.PICKING_WINNER, \"The lottery is not picking winner.\");\r\n        require(IBogged(bog).balanceOf(address(this)) > MAXIMUM_ORACLE_FEE, \"Contract address needs more BOG.\");\r\n        \r\n        // Do not allow state transition to WAITING_RANDOM if no players\r\n        if (numPlayers == 0) {\r\n            resetPool();\r\n            lotteryState = LOTTERY_STATE.OPEN;\r\n            return;\r\n        }\r\n        \r\n        refreshRandomNumber();\r\n        emit WaitingForRandom();\r\n        lotteryState = LOTTERY_STATE.WAITING_RANDOM;\r\n        \r\n        // BOG LESS version for testnet\r\n        random = getRandom();\r\n        lotteryState = LOTTERY_STATE.REWARDING_WINNER;\r\n    }\r\n    \r\n    /**\r\n     * Refresh the random number by requesting a new random number from the BogRNG oracle\r\n     */\r\n    function refreshRandomNumber() private {\r\n        // BOG LESS TEST VERSION\r\n        // IBogRandOracle(oracle).requestRandomness();\r\n    }\r\n    \r\n    function getRandom() private view returns (uint256) {\r\n        return uint256(keccak256(abi.encodePacked(block.difficulty, block.timestamp)));\r\n    }\r\n    \r\n    /**\r\n     * Randomness callback function by the BogRNG oracle\r\n     */\r\n    // function receiveRandomness(uint256 random_) external override {\r\n    //     require(msg.sender == oracleAddress); // Ensure the sender is the oracle\r\n\r\n    //     // lottery already received a random number (maybe an override), ignore callback\r\n    //     if (lotteryState != LOTTERY_STATE.WAITING_RANDOM) {\r\n    //         return;\r\n    //     }\r\n        \r\n    //     random = random_; // Store random number\r\n        \r\n    //     lotteryState = LOTTERY_STATE.REWARDING_WINNER;\r\n    //     // Be wary of max gas usage of BogRNG Oracle callback.\r\n    //     rewardWinner();\r\n    // }\r\n    \r\n    /**\r\n     * Fallback mechanism if BogRNG oracle has not called back after a 2 hour waiting period or if callback fails for other reason.\r\n     * This is not ideal, but the winning index is a hash of supplied random, block.timestamp, and block.difficulty.\r\n     * This should be sufficiently difficult to game. Contract owner cannot predict exact timestamp/difficulty,\r\n     * and miners can't predict the supplied random.\r\n     * TODO: a decentralized way of handling this scenario\r\n     */\r\n    function receiveRandomnessOverride(uint256 random_) external onlyOwner {\r\n        require(lotteryState == LOTTERY_STATE.WAITING_RANDOM, \"Lottery is not waiting for a random number.\");\r\n        // wait 2 hours minimum for oracle callback\r\n        require(block.timestamp > openTimestamp + LOTTERY_RUN_TIME + ORACLE_WAIT_TIME, \"Minimum wait time for Oracle not met.\");\r\n        \r\n        random = random_; // Store random number\r\n        \r\n        lotteryState = LOTTERY_STATE.REWARDING_WINNER;\r\n    }\r\n    \r\n    /**\r\n     * Select and reward the winner.\r\n     * This can only be executed after the BogRNG Oracle has called back to receiveRandomness().\r\n     */\r\n    function rewardWinner() public {\r\n        require(lotteryState == LOTTERY_STATE.REWARDING_WINNER, \"The lottery is not rewarding winner.\");\r\n\r\n        // 256 bit wide result of keccak256 is always greater than the number of players\r\n        uint index = uint256(keccak256(abi.encodePacked(random, block.timestamp, block.difficulty))).mod(numPlayers);\r\n\r\n        address winningAddress = players[index];\r\n        \r\n        // Burn 5% of the winning pool\r\n        uint contractBalance = tokenContract.balanceOf(address(this));\r\n        require(tokenContract.transfer(burnAddress, contractBalance/20));\r\n        \r\n        // Send remaining pool to winner\r\n        contractBalance = tokenContract.balanceOf(address(this));\r\n        require(tokenContract.transfer(winningAddress, contractBalance));\r\n        \r\n        // Winning address and pool amount saved\r\n        winners.push(Winner(winningAddress, contractBalance));\r\n        emit WinnerResult(winningAddress, contractBalance);\r\n        \r\n        resetPool();\r\n        lotteryState = LOTTERY_STATE.OPEN;\r\n    }\r\n    \r\n    function getNumPlayers() public view returns (uint256) {\r\n        return numPlayers;\r\n    }\r\n    \r\n    function getPlayers() public view returns (address[] memory) {\r\n        return players;\r\n    }\r\n    \r\n    function getWinners() public view returns (Winner[] memory) {\r\n        return winners; // historical winners\r\n    }\r\n    \r\n    function getPool() public view returns (uint256) {\r\n        return lotteryPoolSize;\r\n    }\r\n    \r\n    function getOpenTimestamp() public view returns (uint256) {\r\n        return openTimestamp;\r\n    }\r\n}",
  "sourcePath": "/home/shawn/projects/blowf/lotterypwa/contracts/lottery_no_bog.sol",
  "compiler": {
    "name": "solc",
    "version": "0.8.3+commit.8d00100c.Linux.g++"
  },
  "schemaVersion": "3.3.4",
  "updatedAt": "2021-04-06T00:34:31.360Z",
  "devdoc": {
    "kind": "dev",
    "methods": {
      "owner()": {
        "details": "Returns the address of the current owner."
      },
      "renounceOwnership()": {
        "details": "Leaves the contract without owner. It will not be possible to call `onlyOwner` functions anymore. Can only be called by the current owner. NOTE: Renouncing ownership will leave the contract without an owner, thereby removing any functionality that is only available to the owner."
      },
      "transferOwnership(address)": {
        "details": "Transfers ownership of the contract to a new account (`newOwner`). Can only be called by the current owner."
      }
    },
    "version": 1
  },
  "userdoc": {
    "kind": "user",
    "methods": {
      "enter(uint256)": {
        "notice": "Enter the lottery. The caller must have approved this contract to spend BLOWF tokens in advance. This can cause a state transition to PICKING_WINNER if the current timestamp passes the lottery run time."
      },
      "pickWinner()": {
        "notice": "Pick the winner by requesting a random number. The PICKING_WINNER state can be triggered by enter() or by calling pickWinner() directly. This method calls the BogRNG Oracle to generate a new random number. rewardWinner() must be called manually after the BogRNG Oracle supplies the random number."
      },
      "receiveRandomnessOverride(uint256)": {
        "notice": "Fallback mechanism if BogRNG oracle has not called back after a 2 hour waiting period or if callback fails for other reason. This is not ideal, but the winning index is a hash of supplied random, block.timestamp, and block.difficulty. This should be sufficiently difficult to game. Contract owner cannot predict exact timestamp/difficulty, and miners can't predict the supplied random. TODO: a decentralized way of handling this scenario"
      },
      "rewardWinner()": {
        "notice": "Select and reward the winner. This can only be executed after the BogRNG Oracle has called back to receiveRandomness()."
      }
    },
    "notice": "BlowFish Lottery Contract v0.1",
    "version": 1
  }
}